{
  "abi": [
    {
      "inputs": [
        {
          "internalType": "address",
          "name": "_addressWhilistContract",
          "type": "address"
        },
        {
          "internalType": "string[]",
          "name": "_tokensUrl",
          "type": "string[]"
        }
      ],
      "stateMutability": "nonpayable",
      "type": "constructor"
    },
    {
      "inputs": [],
      "name": "ITS_SO_EARLY",
      "type": "error"
    },
    {
      "inputs": [],
      "name": "NOT_ENOUGHT_MONEY",
      "type": "error"
    },
    {
      "inputs": [],
      "name": "NOT_PUBLIC_STATED",
      "type": "error"
    },
    {
      "inputs": [],
      "name": "NOT_WHILISTED_STATED",
      "type": "error"
    },
    {
      "inputs": [],
      "name": "NOT_WHITELISTED",
      "type": "error"
    },
    {
      "inputs": [],
      "name": "NO_MORE_NFT",
      "type": "error"
    },
    {
      "inputs": [],
      "name": "ONE_NFT_FOR_PERSON",
      "type": "error"
    },
    {
      "inputs": [],
      "name": "TIME_DONE",
      "type": "error"
    },
    {
      "inputs": [],
      "name": "TRANSACTION_FAILDE",
      "type": "error"
    },
    {
      "anonymous": false,
      "inputs": [
        {
          "indexed": true,
          "internalType": "address",
          "name": "owner",
          "type": "address"
        },
        {
          "indexed": true,
          "internalType": "address",
          "name": "approved",
          "type": "address"
        },
        {
          "indexed": true,
          "internalType": "uint256",
          "name": "tokenId",
          "type": "uint256"
        }
      ],
      "name": "Approval",
      "type": "event"
    },
    {
      "anonymous": false,
      "inputs": [
        {
          "indexed": true,
          "internalType": "address",
          "name": "owner",
          "type": "address"
        },
        {
          "indexed": true,
          "internalType": "address",
          "name": "operator",
          "type": "address"
        },
        {
          "indexed": false,
          "internalType": "bool",
          "name": "approved",
          "type": "bool"
        }
      ],
      "name": "ApprovalForAll",
      "type": "event"
    },
    {
      "anonymous": false,
      "inputs": [
        {
          "indexed": true,
          "internalType": "address",
          "name": "previousOwner",
          "type": "address"
        },
        {
          "indexed": true,
          "internalType": "address",
          "name": "newOwner",
          "type": "address"
        }
      ],
      "name": "OwnershipTransferred",
      "type": "event"
    },
    {
      "anonymous": false,
      "inputs": [
        {
          "indexed": true,
          "internalType": "address",
          "name": "from",
          "type": "address"
        },
        {
          "indexed": true,
          "internalType": "address",
          "name": "to",
          "type": "address"
        },
        {
          "indexed": true,
          "internalType": "uint256",
          "name": "tokenId",
          "type": "uint256"
        }
      ],
      "name": "Transfer",
      "type": "event"
    },
    {
      "anonymous": false,
      "inputs": [
        {
          "indexed": false,
          "internalType": "uint256",
          "name": "tokenId",
          "type": "uint256"
        },
        {
          "indexed": false,
          "internalType": "address",
          "name": "addressMinted",
          "type": "address"
        }
      ],
      "name": "mint",
      "type": "event"
    },
    {
      "stateMutability": "payable",
      "type": "fallback"
    },
    {
      "inputs": [
        {
          "internalType": "address",
          "name": "",
          "type": "address"
        }
      ],
      "name": "addressWithNft",
      "outputs": [
        {
          "internalType": "bool",
          "name": "",
          "type": "bool"
        }
      ],
      "stateMutability": "view",
      "type": "function"
    },
    {
      "inputs": [
        {
          "internalType": "address",
          "name": "to",
          "type": "address"
        },
        {
          "internalType": "uint256",
          "name": "tokenId",
          "type": "uint256"
        }
      ],
      "name": "approve",
      "outputs": [],
      "stateMutability": "nonpayable",
      "type": "function"
    },
    {
      "inputs": [
        {
          "internalType": "address",
          "name": "owner",
          "type": "address"
        }
      ],
      "name": "balanceOf",
      "outputs": [
        {
          "internalType": "uint256",
          "name": "",
          "type": "uint256"
        }
      ],
      "stateMutability": "view",
      "type": "function"
    },
    {
      "inputs": [
        {
          "internalType": "enum NftMint.state",
          "name": "_state",
          "type": "uint8"
        }
      ],
      "name": "changeState",
      "outputs": [],
      "stateMutability": "nonpayable",
      "type": "function"
    },
    {
      "inputs": [
        {
          "internalType": "uint256",
          "name": "tokenId",
          "type": "uint256"
        }
      ],
      "name": "getApproved",
      "outputs": [
        {
          "internalType": "address",
          "name": "",
          "type": "address"
        }
      ],
      "stateMutability": "view",
      "type": "function"
    },
    {
      "inputs": [
        {
          "internalType": "address",
          "name": "owner",
          "type": "address"
        },
        {
          "internalType": "address",
          "name": "operator",
          "type": "address"
        }
      ],
      "name": "isApprovedForAll",
      "outputs": [
        {
          "internalType": "bool",
          "name": "",
          "type": "bool"
        }
      ],
      "stateMutability": "view",
      "type": "function"
    },
    {
      "inputs": [],
      "name": "maxTokenIds",
      "outputs": [
        {
          "internalType": "uint256",
          "name": "",
          "type": "uint256"
        }
      ],
      "stateMutability": "view",
      "type": "function"
    },
    {
      "inputs": [],
      "name": "minPublicPrice",
      "outputs": [
        {
          "internalType": "uint256",
          "name": "",
          "type": "uint256"
        }
      ],
      "stateMutability": "view",
      "type": "function"
    },
    {
      "inputs": [],
      "name": "mintPublic",
      "outputs": [],
      "stateMutability": "payable",
      "type": "function"
    },
    {
      "inputs": [],
      "name": "mintWhilisted",
      "outputs": [],
      "stateMutability": "payable",
      "type": "function"
    },
    {
      "inputs": [],
      "name": "mintWhilistedPrice",
      "outputs": [
        {
          "internalType": "uint256",
          "name": "",
          "type": "uint256"
        }
      ],
      "stateMutability": "view",
      "type": "function"
    },
    {
      "inputs": [],
      "name": "name",
      "outputs": [
        {
          "internalType": "string",
          "name": "",
          "type": "string"
        }
      ],
      "stateMutability": "view",
      "type": "function"
    },
    {
      "inputs": [],
      "name": "owner",
      "outputs": [
        {
          "internalType": "address",
          "name": "",
          "type": "address"
        }
      ],
      "stateMutability": "view",
      "type": "function"
    },
    {
      "inputs": [
        {
          "internalType": "uint256",
          "name": "tokenId",
          "type": "uint256"
        }
      ],
      "name": "ownerOf",
      "outputs": [
        {
          "internalType": "address",
          "name": "",
          "type": "address"
        }
      ],
      "stateMutability": "view",
      "type": "function"
    },
    {
      "inputs": [],
      "name": "renounceOwnership",
      "outputs": [],
      "stateMutability": "nonpayable",
      "type": "function"
    },
    {
      "inputs": [
        {
          "internalType": "address",
          "name": "from",
          "type": "address"
        },
        {
          "internalType": "address",
          "name": "to",
          "type": "address"
        },
        {
          "internalType": "uint256",
          "name": "tokenId",
          "type": "uint256"
        }
      ],
      "name": "safeTransferFrom",
      "outputs": [],
      "stateMutability": "nonpayable",
      "type": "function"
    },
    {
      "inputs": [
        {
          "internalType": "address",
          "name": "from",
          "type": "address"
        },
        {
          "internalType": "address",
          "name": "to",
          "type": "address"
        },
        {
          "internalType": "uint256",
          "name": "tokenId",
          "type": "uint256"
        },
        {
          "internalType": "bytes",
          "name": "data",
          "type": "bytes"
        }
      ],
      "name": "safeTransferFrom",
      "outputs": [],
      "stateMutability": "nonpayable",
      "type": "function"
    },
    {
      "inputs": [
        {
          "internalType": "address",
          "name": "operator",
          "type": "address"
        },
        {
          "internalType": "bool",
          "name": "approved",
          "type": "bool"
        }
      ],
      "name": "setApprovalForAll",
      "outputs": [],
      "stateMutability": "nonpayable",
      "type": "function"
    },
    {
      "inputs": [],
      "name": "stateMint",
      "outputs": [
        {
          "internalType": "enum NftMint.state",
          "name": "",
          "type": "uint8"
        }
      ],
      "stateMutability": "view",
      "type": "function"
    },
    {
      "inputs": [],
      "name": "stop",
      "outputs": [],
      "stateMutability": "nonpayable",
      "type": "function"
    },
    {
      "inputs": [
        {
          "internalType": "bytes4",
          "name": "interfaceId",
          "type": "bytes4"
        }
      ],
      "name": "supportsInterface",
      "outputs": [
        {
          "internalType": "bool",
          "name": "",
          "type": "bool"
        }
      ],
      "stateMutability": "view",
      "type": "function"
    },
    {
      "inputs": [],
      "name": "symbol",
      "outputs": [
        {
          "internalType": "string",
          "name": "",
          "type": "string"
        }
      ],
      "stateMutability": "view",
      "type": "function"
    },
    {
      "inputs": [
        {
          "internalType": "uint256",
          "name": "index",
          "type": "uint256"
        }
      ],
      "name": "tokenByIndex",
      "outputs": [
        {
          "internalType": "uint256",
          "name": "",
          "type": "uint256"
        }
      ],
      "stateMutability": "view",
      "type": "function"
    },
    {
      "inputs": [],
      "name": "tokenId",
      "outputs": [
        {
          "internalType": "uint256",
          "name": "",
          "type": "uint256"
        }
      ],
      "stateMutability": "view",
      "type": "function"
    },
    {
      "inputs": [
        {
          "internalType": "address",
          "name": "owner",
          "type": "address"
        },
        {
          "internalType": "uint256",
          "name": "index",
          "type": "uint256"
        }
      ],
      "name": "tokenOfOwnerByIndex",
      "outputs": [
        {
          "internalType": "uint256",
          "name": "",
          "type": "uint256"
        }
      ],
      "stateMutability": "view",
      "type": "function"
    },
    {
      "inputs": [
        {
          "internalType": "uint256",
          "name": "tokenId",
          "type": "uint256"
        }
      ],
      "name": "tokenURI",
      "outputs": [
        {
          "internalType": "string",
          "name": "",
          "type": "string"
        }
      ],
      "stateMutability": "view",
      "type": "function"
    },
    {
      "inputs": [
        {
          "internalType": "uint256",
          "name": "",
          "type": "uint256"
        }
      ],
      "name": "tokensUrl",
      "outputs": [
        {
          "internalType": "string",
          "name": "",
          "type": "string"
        }
      ],
      "stateMutability": "view",
      "type": "function"
    },
    {
      "inputs": [],
      "name": "totalSupply",
      "outputs": [
        {
          "internalType": "uint256",
          "name": "",
          "type": "uint256"
        }
      ],
      "stateMutability": "view",
      "type": "function"
    },
    {
      "inputs": [
        {
          "internalType": "address",
          "name": "from",
          "type": "address"
        },
        {
          "internalType": "address",
          "name": "to",
          "type": "address"
        },
        {
          "internalType": "uint256",
          "name": "tokenId",
          "type": "uint256"
        }
      ],
      "name": "transferFrom",
      "outputs": [],
      "stateMutability": "nonpayable",
      "type": "function"
    },
    {
      "inputs": [
        {
          "internalType": "address",
          "name": "newOwner",
          "type": "address"
        }
      ],
      "name": "transferOwnership",
      "outputs": [],
      "stateMutability": "nonpayable",
      "type": "function"
    },
    {
      "inputs": [],
      "name": "whitelistedPeople",
      "outputs": [
        {
          "internalType": "contract Iwhitelisted",
          "name": "",
          "type": "address"
        }
      ],
      "stateMutability": "view",
      "type": "function"
    },
    {
      "inputs": [],
      "name": "whitelistedTime",
      "outputs": [
        {
          "internalType": "uint256",
          "name": "",
          "type": "uint256"
        }
      ],
      "stateMutability": "view",
      "type": "function"
    },
    {
      "inputs": [
        {
          "internalType": "address payable",
          "name": "_address",
          "type": "address"
        }
      ],
      "name": "withdraw",
      "outputs": [],
      "stateMutability": "nonpayable",
      "type": "function"
    },
    {
      "stateMutability": "payable",
      "type": "receive"
    }
  ],
  "bytecode": {
    "object": "0x60c06040526000600d553480156200001657600080fd5b5060405162002c9e38038062002c9e833981016040819052620000399162000275565b60405180604001604052806006815260200165426173696c7360d01b81525060405180604001604052806002815260200161427360f01b81525081600090816200008491906200046b565b5060016200009382826200046b565b505050620000b0620000aa620000ff60201b60201c565b62000103565b6001600160a01b03821660a052620000cb4261012c62000537565b608052600b805460ff60a01b1916600160a01b1790558051620000f690600e90602084019062000155565b5050506200055f565b3390565b600b80546001600160a01b038381166001600160a01b0319831681179093556040519116919082907f8be0079c531659141344cd1fd0a4f28419497f9722a3daafe3b4186f6b6457e090600090a35050565b828054828255906000526020600020908101928215620001a0579160200282015b82811115620001a057825182906200018f90826200046b565b509160200191906001019062000176565b50620001ae929150620001b2565b5090565b80821115620001ae576000620001c98282620001d3565b50600101620001b2565b508054620001e190620003dc565b6000825580601f10620001f2575050565b601f01602090049060005260206000209081019062000212919062000215565b50565b5b80821115620001ae576000815560010162000216565b634e487b7160e01b600052604160045260246000fd5b604051601f8201601f191681016001600160401b03811182821017156200026d576200026d6200022c565b604052919050565b60008060408084860312156200028a57600080fd5b83516001600160a01b0381168114620002a257600080fd5b602085810151919450906001600160401b0380821115620002c257600080fd5b8187019150601f8881840112620002d857600080fd5b825182811115620002ed57620002ed6200022c565b8060051b620002fe86820162000242565b918252848101860191868101908c8411156200031957600080fd5b87870192505b83831015620003c957825186811115620003395760008081fd5b8701603f81018e136200034c5760008081fd5b88810151878111156200036357620003636200022c565b62000376818801601f19168b0162000242565b8181528f8c8385010111156200038c5760008081fd5b60005b82811015620003ac578381018d01518282018d01528b016200038f565b5060009181018b019190915283525091870191908701906200031f565b8099505050505050505050509250929050565b600181811c90821680620003f157607f821691505b6020821081036200041257634e487b7160e01b600052602260045260246000fd5b50919050565b601f8211156200046657600081815260208120601f850160051c81016020861015620004415750805b601f850160051c820191505b8181101562000462578281556001016200044d565b5050505b505050565b81516001600160401b038111156200048757620004876200022c565b6200049f81620004988454620003dc565b8462000418565b602080601f831160018114620004d75760008415620004be5750858301515b600019600386901b1c1916600185901b17855562000462565b600085815260208120601f198616915b828110156200050857888601518255948401946001909101908401620004e7565b5085821015620005275787850151600019600388901b60f8161c191681555b5050505050600190811b01905550565b808201808211156200055957634e487b7160e01b600052601160045260246000fd5b92915050565b60805160a0516126fd620005a1600039600081816102b9015281816109510152610f8a015260008181610505015281816108980152610ed101526126fd6000f3fe6080604052600436106101da5760003560e01c80634f6ccce7116101015780638da5cb5b1161009a578063b88d4fde1161006c578063b88d4fde1461055c578063c87b56dd1461057c578063cf288aad1461059c578063e985e9c5146105cc578063f2fde38b1461061557005b80638da5cb5b146104d5578063903eab92146104f357806395d89b4114610527578063a22cb4651461053c57005b8063701b1b15116100d3578063701b1b151461047c57806370a0823114610498578063715018a6146104b85780638c874ebd146104cd57005b80634f6ccce71461040657806351cff8d9146104265780635f769621146104465780636352211e1461045c57005b806323b872dd11610173578063378c277011610145578063378c27701461037c57806342842e0e1461039c57806343688248146103bc5780634a7bd404146103d857005b806323b872dd14610314578063268f1153146103345780632ee8381e146103545780632f745c591461035c57005b8063095ea7b3116101ac578063095ea7b314610287578063122840b1146102a757806317d70f7c146102db57806318160ddd146102ff57005b806301ffc9a7146101e357806306fdde031461021857806307da68f51461023a578063081812fc1461024f57005b366101e157005b005b3480156101ef57600080fd5b506102036101fe366004612072565b610635565b60405190151581526020015b60405180910390f35b34801561022457600080fd5b5061022d610646565b60405161020f91906120df565b34801561024657600080fd5b506101e16106d8565b34801561025b57600080fd5b5061026f61026a3660046120f2565b6106ef565b6040516001600160a01b03909116815260200161020f565b34801561029357600080fd5b506101e16102a2366004612120565b610716565b3480156102b357600080fd5b5061026f7f000000000000000000000000000000000000000000000000000000000000000081565b3480156102e757600080fd5b506102f1600d5481565b60405190815260200161020f565b34801561030b57600080fd5b506008546102f1565b34801561032057600080fd5b506101e161032f36600461214c565b610830565b34801561034057600080fd5b506101e161034f36600461218d565b610861565b6101e1610896565b34801561036857600080fd5b506102f1610377366004612120565b610b65565b34801561038857600080fd5b5061022d6103973660046120f2565b610bfb565b3480156103a857600080fd5b506101e16103b736600461214c565b610ca7565b3480156103c857600080fd5b506102f16706f05b59d3b2000081565b3480156103e457600080fd5b50600b546103f990600160a01b900460ff1681565b60405161020f91906121c4565b34801561041257600080fd5b506102f16104213660046120f2565b610cc2565b34801561043257600080fd5b506101e16104413660046121ec565b610d55565b34801561045257600080fd5b506102f16103e881565b34801561046857600080fd5b5061026f6104773660046120f2565b610dd5565b34801561048857600080fd5b506102f167016345785d8a000081565b3480156104a457600080fd5b506102f16104b33660046121ec565b610e35565b3480156104c457600080fd5b506101e1610ebb565b6101e1610ecf565b3480156104e157600080fd5b50600b546001600160a01b031661026f565b3480156104ff57600080fd5b506102f17f000000000000000000000000000000000000000000000000000000000000000081565b34801561053357600080fd5b5061022d6110e2565b34801561054857600080fd5b506101e1610557366004612217565b6110f1565b34801561056857600080fd5b506101e1610577366004612266565b6110fc565b34801561058857600080fd5b5061022d6105973660046120f2565b611134565b3480156105a857600080fd5b506102036105b73660046121ec565b600c6020526000908152604090205460ff1681565b3480156105d857600080fd5b506102036105e7366004612346565b6001600160a01b03918216600090815260056020908152604080832093909416825291909152205460ff1690565b34801561062157600080fd5b506101e16106303660046121ec565b61113f565b6000610640826111b8565b92915050565b60606000805461065590612374565b80601f016020809104026020016040519081016040528092919081815260200182805461068190612374565b80156106ce5780601f106106a3576101008083540402835291602001916106ce565b820191906000526020600020905b8154815290600101906020018083116106b157829003601f168201915b5050505050905090565b6106e06111dd565b600b805460ff60a01b19169055565b60006106fa82611237565b506000908152600460205260409020546001600160a01b031690565b600061072182610dd5565b9050806001600160a01b0316836001600160a01b0316036107935760405162461bcd60e51b815260206004820152602160248201527f4552433732313a20617070726f76616c20746f2063757272656e74206f776e656044820152603960f91b60648201526084015b60405180910390fd5b336001600160a01b03821614806107af57506107af81336105e7565b6108215760405162461bcd60e51b815260206004820152603d60248201527f4552433732313a20617070726f76652063616c6c6572206973206e6f7420746f60448201527f6b656e206f776e6572206f7220617070726f76656420666f7220616c6c000000606482015260840161078a565b61082b8383611296565b505050565b61083a3382611304565b6108565760405162461bcd60e51b815260040161078a906123ae565b61082b838383611383565b6108696111dd565b600b805482919060ff60a01b1916600160a01b83600281111561088e5761088e6121ae565b021790555050565b7f00000000000000000000000000000000000000000000000000000000000000004211156108d7576040516389d0d5c960e01b815260040160405180910390fd5b6001600b54600160a01b900460ff1660028111156108f7576108f76121ae565b14610915576040516397a2c70760e01b815260040160405180910390fd5b67016345785d8a0000341161093d5760405163a341c4f960e01b815260040160405180910390fd5b60405162d9267b60e31b81523360048201527f00000000000000000000000000000000000000000000000000000000000000006001600160a01b0316906306c933d890602401602060405180830381865afa1580156109a0573d6000803e3d6000fd5b505050506040513d601f19601f820116820180604052508101906109c491906123fb565b6109e157604051635ffde35f60e11b815260040160405180910390fd5b6103e8600d541115610a06576040516318558ea560e21b815260040160405180910390fd5b336000908152600c602052604090205460ff1615610a3757604051633abc632960e11b815260040160405180910390fd5b610a4333600d546114f4565b610af6600d54600e600d5481548110610a5e57610a5e612418565b906000526020600020018054610a7390612374565b80601f0160208091040260200160405190810160405280929190818152602001828054610a9f90612374565b8015610aec5780601f10610ac157610100808354040283529160200191610aec565b820191906000526020600020905b815481529060010190602001808311610acf57829003601f168201915b505050505061150e565b600d54604080519182523360208301527f94bf804d99f2e506274f8f54327419cf422bd9efa05b9d7afe19d8049dcab16d910160405180910390a16001600d6000828254610b449190612444565b9091555050336000908152600c60205260409020805460ff19166001179055565b6000610b7083610e35565b8210610bd25760405162461bcd60e51b815260206004820152602b60248201527f455243373231456e756d657261626c653a206f776e657220696e646578206f7560448201526a74206f6620626f756e647360a81b606482015260840161078a565b506001600160a01b03919091166000908152600660209081526040808320938352929052205490565b600e8181548110610c0b57600080fd5b906000526020600020016000915090508054610c2690612374565b80601f0160208091040260200160405190810160405280929190818152602001828054610c5290612374565b8015610c9f5780601f10610c7457610100808354040283529160200191610c9f565b820191906000526020600020905b815481529060010190602001808311610c8257829003601f168201915b505050505081565b61082b838383604051806020016040528060008152506110fc565b6000610ccd60085490565b8210610d305760405162461bcd60e51b815260206004820152602c60248201527f455243373231456e756d657261626c653a20676c6f62616c20696e646578206f60448201526b7574206f6620626f756e647360a01b606482015260840161078a565b60088281548110610d4357610d43612418565b90600052602060002001549050919050565b610d5d6111dd565b6000816001600160a01b03164760405160006040518083038185875af1925050503d8060008114610daa576040519150601f19603f3d011682016040523d82523d6000602084013e610daf565b606091505b5050905080610dd1576040516349afc6cf60e01b815260040160405180910390fd5b5050565b6000818152600260205260408120546001600160a01b0316806106405760405162461bcd60e51b8152602060048201526018602482015277115490cdcc8c4e881a5b9d985b1a59081d1bdad95b88125160421b604482015260640161078a565b60006001600160a01b038216610e9f5760405162461bcd60e51b815260206004820152602960248201527f4552433732313a2061646472657373207a65726f206973206e6f7420612076616044820152683634b21037bbb732b960b91b606482015260840161078a565b506001600160a01b031660009081526003602052604090205490565b610ec36111dd565b610ecd60006115a1565b565b7f0000000000000000000000000000000000000000000000000000000000000000421015610f1057604051630869f73d60e31b815260040160405180910390fd5b6002600b54600160a01b900460ff166002811115610f3057610f306121ae565b14610f4e57604051636ef01fcd60e11b815260040160405180910390fd5b6706f05b59d3b200003411610f765760405163a341c4f960e01b815260040160405180910390fd5b60405162d9267b60e31b81523360048201527f00000000000000000000000000000000000000000000000000000000000000006001600160a01b0316906306c933d890602401602060405180830381865afa158015610fd9573d6000803e3d6000fd5b505050506040513d601f19601f82011682018060405250810190610ffd91906123fb565b61101a57604051635ffde35f60e11b815260040160405180910390fd5b6103e8600d54111561103f576040516318558ea560e21b815260040160405180910390fd5b336000908152600c602052604090205460ff161561107057604051633abc632960e11b815260040160405180910390fd5b61107c33600d546114f4565b611097600d54600e600d5481548110610a5e57610a5e612418565b600d54604080519182523360208301527f94bf804d99f2e506274f8f54327419cf422bd9efa05b9d7afe19d8049dcab16d910160405180910390a1600d8054906000610b4483612457565b60606001805461065590612374565b610dd13383836115f3565b6111063383611304565b6111225760405162461bcd60e51b815260040161078a906123ae565b61112e848484846116c1565b50505050565b6060610640826116f4565b6111476111dd565b6001600160a01b0381166111ac5760405162461bcd60e51b815260206004820152602660248201527f4f776e61626c653a206e6577206f776e657220697320746865207a65726f206160448201526564647265737360d01b606482015260840161078a565b6111b5816115a1565b50565b60006001600160e01b0319821663780e9d6360e01b14806106405750610640826117fc565b600b546001600160a01b03163314610ecd5760405162461bcd60e51b815260206004820181905260248201527f4f776e61626c653a2063616c6c6572206973206e6f7420746865206f776e6572604482015260640161078a565b6000818152600260205260409020546001600160a01b03166111b55760405162461bcd60e51b8152602060048201526018602482015277115490cdcc8c4e881a5b9d985b1a59081d1bdad95b88125160421b604482015260640161078a565b600081815260046020526040902080546001600160a01b0319166001600160a01b03841690811790915581906112cb82610dd5565b6001600160a01b03167f8c5be1e5ebec7d5bd14f71427d1e84f3dd0314c0f7b2291e5b200ac8c7c3b92560405160405180910390a45050565b60008061131083610dd5565b9050806001600160a01b0316846001600160a01b0316148061135757506001600160a01b0380821660009081526005602090815260408083209388168352929052205460ff165b8061137b5750836001600160a01b0316611370846106ef565b6001600160a01b0316145b949350505050565b826001600160a01b031661139682610dd5565b6001600160a01b0316146113bc5760405162461bcd60e51b815260040161078a90612470565b6001600160a01b03821661141e5760405162461bcd60e51b8152602060048201526024808201527f4552433732313a207472616e7366657220746f20746865207a65726f206164646044820152637265737360e01b606482015260840161078a565b61142b838383600161184c565b826001600160a01b031661143e82610dd5565b6001600160a01b0316146114645760405162461bcd60e51b815260040161078a90612470565b600081815260046020908152604080832080546001600160a01b03199081169091556001600160a01b0387811680865260038552838620805460001901905590871680865283862080546001019055868652600290945282852080549092168417909155905184937fddf252ad1be2c89b69c2b068fc378daa952ba7f163c4a11628f55a4df523b3ef91a4505050565b610dd1828260405180602001604052806000815250611858565b6000828152600260205260409020546001600160a01b03166115895760405162461bcd60e51b815260206004820152602e60248201527f45524337323155524953746f726167653a2055524920736574206f66206e6f6e60448201526d32bc34b9ba32b73a103a37b5b2b760911b606482015260840161078a565b6000828152600a6020526040902061082b8282612503565b600b80546001600160a01b038381166001600160a01b0319831681179093556040519116919082907f8be0079c531659141344cd1fd0a4f28419497f9722a3daafe3b4186f6b6457e090600090a35050565b816001600160a01b0316836001600160a01b0316036116545760405162461bcd60e51b815260206004820152601960248201527f4552433732313a20617070726f766520746f2063616c6c657200000000000000604482015260640161078a565b6001600160a01b03838116600081815260056020908152604080832094871680845294825291829020805460ff191686151590811790915591519182527f17307eab39ab6107e8899845ad3d59bd9653f200f220920489ca2b5937696c31910160405180910390a3505050565b6116cc848484611383565b6116d88484848461188b565b61112e5760405162461bcd60e51b815260040161078a906125c3565b60606116ff82611237565b6000828152600a60205260408120805461171890612374565b80601f016020809104026020016040519081016040528092919081815260200182805461174490612374565b80156117915780601f1061176657610100808354040283529160200191611791565b820191906000526020600020905b81548152906001019060200180831161177457829003601f168201915b5050505050905060006117af60408051602081019091526000815290565b905080516000036117c1575092915050565b8151156117f35780826040516020016117db929190612615565b60405160208183030381529060405292505050919050565b61137b8461198c565b60006001600160e01b031982166380ac58cd60e01b148061182d57506001600160e01b03198216635b5e139f60e01b145b8061064057506301ffc9a760e01b6001600160e01b0319831614610640565b61112e84848484611a00565b6118628383611b40565b61186f600084848461188b565b61082b5760405162461bcd60e51b815260040161078a906125c3565b60006001600160a01b0384163b1561198157604051630a85bd0160e11b81526001600160a01b0385169063150b7a02906118cf903390899088908890600401612644565b6020604051808303816000875af192505050801561190a575060408051601f3d908101601f1916820190925261190791810190612681565b60015b611967573d808015611938576040519150601f19603f3d011682016040523d82523d6000602084013e61193d565b606091505b50805160000361195f5760405162461bcd60e51b815260040161078a906125c3565b805181602001fd5b6001600160e01b031916630a85bd0160e11b14905061137b565b506001949350505050565b606061199782611237565b60006119ae60408051602081019091526000815290565b905060008151116119ce57604051806020016040528060008152506119f9565b806119d884611cd9565b6040516020016119e9929190612615565b6040516020818303038152906040525b9392505050565b611a0c84848484611d6c565b6001811115611a7b5760405162461bcd60e51b815260206004820152603560248201527f455243373231456e756d657261626c653a20636f6e7365637574697665207472604482015274185b9cd9995c9cc81b9bdd081cdd5c1c1bdc9d1959605a1b606482015260840161078a565b816001600160a01b038516611ad757611ad281600880546000838152600960205260408120829055600182018355919091527ff3f7a9fe364faab93b216da50a3214154f22a0a2b415b23a84c8169e8b636ee30155565b611afa565b836001600160a01b0316856001600160a01b031614611afa57611afa8582611df4565b6001600160a01b038416611b1657611b1181611e91565b611b39565b846001600160a01b0316846001600160a01b031614611b3957611b398482611f40565b5050505050565b6001600160a01b038216611b965760405162461bcd60e51b815260206004820181905260248201527f4552433732313a206d696e7420746f20746865207a65726f2061646472657373604482015260640161078a565b6000818152600260205260409020546001600160a01b031615611bfb5760405162461bcd60e51b815260206004820152601c60248201527f4552433732313a20746f6b656e20616c7265616479206d696e74656400000000604482015260640161078a565b611c0960008383600161184c565b6000818152600260205260409020546001600160a01b031615611c6e5760405162461bcd60e51b815260206004820152601c60248201527f4552433732313a20746f6b656e20616c7265616479206d696e74656400000000604482015260640161078a565b6001600160a01b038216600081815260036020908152604080832080546001019055848352600290915280822080546001600160a01b0319168417905551839291907fddf252ad1be2c89b69c2b068fc378daa952ba7f163c4a11628f55a4df523b3ef908290a45050565b60606000611ce683611f84565b600101905060008167ffffffffffffffff811115611d0657611d06612250565b6040519080825280601f01601f191660200182016040528015611d30576020820181803683370190505b5090508181016020015b600019016f181899199a1a9b1b9c1cb0b131b232b360811b600a86061a8153600a8504945084611d3a57509392505050565b600181111561112e576001600160a01b03841615611db2576001600160a01b03841660009081526003602052604081208054839290611dac90849061269e565b90915550505b6001600160a01b0383161561112e576001600160a01b03831660009081526003602052604081208054839290611de9908490612444565b909155505050505050565b60006001611e0184610e35565b611e0b919061269e565b600083815260076020526040902054909150808214611e5e576001600160a01b03841660009081526006602090815260408083208584528252808320548484528184208190558352600790915290208190555b5060009182526007602090815260408084208490556001600160a01b039094168352600681528383209183525290812055565b600854600090611ea39060019061269e565b60008381526009602052604081205460088054939450909284908110611ecb57611ecb612418565b906000526020600020015490508060088381548110611eec57611eec612418565b6000918252602080832090910192909255828152600990915260408082208490558582528120556008805480611f2457611f246126b1565b6001900381819060005260206000200160009055905550505050565b6000611f4b83610e35565b6001600160a01b039093166000908152600660209081526040808320868452825280832085905593825260079052919091209190915550565b60008072184f03e93ff9f4daa797ed6e38ed64bf6a1f0160401b8310611fc35772184f03e93ff9f4daa797ed6e38ed64bf6a1f0160401b830492506040015b6d04ee2d6d415b85acef81000000008310611fef576d04ee2d6d415b85acef8100000000830492506020015b662386f26fc10000831061200d57662386f26fc10000830492506010015b6305f5e1008310612025576305f5e100830492506008015b612710831061203957612710830492506004015b6064831061204b576064830492506002015b600a83106106405760010192915050565b6001600160e01b0319811681146111b557600080fd5b60006020828403121561208457600080fd5b81356119f98161205c565b60005b838110156120aa578181015183820152602001612092565b50506000910152565b600081518084526120cb81602086016020860161208f565b601f01601f19169290920160200192915050565b6020815260006119f960208301846120b3565b60006020828403121561210457600080fd5b5035919050565b6001600160a01b03811681146111b557600080fd5b6000806040838503121561213357600080fd5b823561213e8161210b565b946020939093013593505050565b60008060006060848603121561216157600080fd5b833561216c8161210b565b9250602084013561217c8161210b565b929592945050506040919091013590565b60006020828403121561219f57600080fd5b8135600381106119f957600080fd5b634e487b7160e01b600052602160045260246000fd5b60208101600383106121e657634e487b7160e01b600052602160045260246000fd5b91905290565b6000602082840312156121fe57600080fd5b81356119f98161210b565b80151581146111b557600080fd5b6000806040838503121561222a57600080fd5b82356122358161210b565b9150602083013561224581612209565b809150509250929050565b634e487b7160e01b600052604160045260246000fd5b6000806000806080858703121561227c57600080fd5b84356122878161210b565b935060208501356122978161210b565b925060408501359150606085013567ffffffffffffffff808211156122bb57600080fd5b818701915087601f8301126122cf57600080fd5b8135818111156122e1576122e1612250565b604051601f8201601f19908116603f0116810190838211818310171561230957612309612250565b816040528281528a602084870101111561232257600080fd5b82602086016020830137600060208483010152809550505050505092959194509250565b6000806040838503121561235957600080fd5b82356123648161210b565b915060208301356122458161210b565b600181811c9082168061238857607f821691505b6020821081036123a857634e487b7160e01b600052602260045260246000fd5b50919050565b6020808252602d908201527f4552433732313a2063616c6c6572206973206e6f7420746f6b656e206f776e6560408201526c1c881bdc88185c1c1c9bdd9959609a1b606082015260800190565b60006020828403121561240d57600080fd5b81516119f981612209565b634e487b7160e01b600052603260045260246000fd5b634e487b7160e01b600052601160045260246000fd5b808201808211156106405761064061242e565b6000600182016124695761246961242e565b5060010190565b60208082526025908201527f4552433732313a207472616e736665722066726f6d20696e636f72726563742060408201526437bbb732b960d91b606082015260800190565b601f82111561082b57600081815260208120601f850160051c810160208610156124dc5750805b601f850160051c820191505b818110156124fb578281556001016124e8565b505050505050565b815167ffffffffffffffff81111561251d5761251d612250565b6125318161252b8454612374565b846124b5565b602080601f831160018114612566576000841561254e5750858301515b600019600386901b1c1916600185901b1785556124fb565b600085815260208120601f198616915b8281101561259557888601518255948401946001909101908401612576565b50858210156125b35787850151600019600388901b60f8161c191681555b5050505050600190811b01905550565b60208082526032908201527f4552433732313a207472616e7366657220746f206e6f6e20455243373231526560408201527131b2b4bb32b91034b6b83632b6b2b73a32b960711b606082015260800190565b6000835161262781846020880161208f565b83519083019061263b81836020880161208f565b01949350505050565b6001600160a01b0385811682528416602082015260408101839052608060608201819052600090612677908301846120b3565b9695505050505050565b60006020828403121561269357600080fd5b81516119f98161205c565b818103818111156106405761064061242e565b634e487b7160e01b600052603160045260246000fdfea2646970667358221220e2c2e5fc940b3fb437ba17dfc2a9d7f7047024528ec0a15fdde0b8ad6068aba964736f6c63430008120033",
    "linkReferences": {}
  },
  "methodIdentifiers": {
    "addressWithNft(address)": "cf288aad",
    "approve(address,uint256)": "095ea7b3",
    "balanceOf(address)": "70a08231",
    "changeState(uint8)": "268f1153",
    "getApproved(uint256)": "081812fc",
    "isApprovedForAll(address,address)": "e985e9c5",
    "maxTokenIds()": "5f769621",
    "minPublicPrice()": "43688248",
    "mintPublic()": "8c874ebd",
    "mintWhilisted()": "2ee8381e",
    "mintWhilistedPrice()": "701b1b15",
    "name()": "06fdde03",
    "owner()": "8da5cb5b",
    "ownerOf(uint256)": "6352211e",
    "renounceOwnership()": "715018a6",
    "safeTransferFrom(address,address,uint256)": "42842e0e",
    "safeTransferFrom(address,address,uint256,bytes)": "b88d4fde",
    "setApprovalForAll(address,bool)": "a22cb465",
    "stateMint()": "4a7bd404",
    "stop()": "07da68f5",
    "supportsInterface(bytes4)": "01ffc9a7",
    "symbol()": "95d89b41",
    "tokenByIndex(uint256)": "4f6ccce7",
    "tokenId()": "17d70f7c",
    "tokenOfOwnerByIndex(address,uint256)": "2f745c59",
    "tokenURI(uint256)": "c87b56dd",
    "tokensUrl(uint256)": "378c2770",
    "totalSupply()": "18160ddd",
    "transferFrom(address,address,uint256)": "23b872dd",
    "transferOwnership(address)": "f2fde38b",
    "whitelistedPeople()": "122840b1",
    "whitelistedTime()": "903eab92",
    "withdraw(address)": "51cff8d9"
  },
  "id": 1
}