{
  "address": "0x5FbDB2315678afecb367f032d93F642f64180aa3",
  "abi": [
    {
      "inputs": [
        {
          "internalType": "address",
          "name": "_addressWhilistContract",
          "type": "address"
        },
        {
          "internalType": "string[]",
          "name": "_tokensUrl",
          "type": "string[]"
        }
      ],
      "stateMutability": "nonpayable",
      "type": "constructor"
    },
    {
      "inputs": [],
      "name": "ITS_SO_EARLY",
      "type": "error"
    },
    {
      "inputs": [],
      "name": "NOT_ENOUGHT_MONEY",
      "type": "error"
    },
    {
      "inputs": [],
      "name": "NOT_PUBLIC_STATED",
      "type": "error"
    },
    {
      "inputs": [],
      "name": "NOT_WHILISTED_STATED",
      "type": "error"
    },
    {
      "inputs": [],
      "name": "NOT_WHITELISTED",
      "type": "error"
    },
    {
      "inputs": [],
      "name": "NO_MORE_NFT",
      "type": "error"
    },
    {
      "inputs": [],
      "name": "ONE_NFT_FOR_PERSON",
      "type": "error"
    },
    {
      "inputs": [],
      "name": "TIME_DONE",
      "type": "error"
    },
    {
      "inputs": [],
      "name": "TRANSACTION_FAILDE",
      "type": "error"
    },
    {
      "anonymous": false,
      "inputs": [
        {
          "indexed": true,
          "internalType": "address",
          "name": "owner",
          "type": "address"
        },
        {
          "indexed": true,
          "internalType": "address",
          "name": "approved",
          "type": "address"
        },
        {
          "indexed": true,
          "internalType": "uint256",
          "name": "tokenId",
          "type": "uint256"
        }
      ],
      "name": "Approval",
      "type": "event"
    },
    {
      "anonymous": false,
      "inputs": [
        {
          "indexed": true,
          "internalType": "address",
          "name": "owner",
          "type": "address"
        },
        {
          "indexed": true,
          "internalType": "address",
          "name": "operator",
          "type": "address"
        },
        {
          "indexed": false,
          "internalType": "bool",
          "name": "approved",
          "type": "bool"
        }
      ],
      "name": "ApprovalForAll",
      "type": "event"
    },
    {
      "anonymous": false,
      "inputs": [
        {
          "indexed": true,
          "internalType": "address",
          "name": "previousOwner",
          "type": "address"
        },
        {
          "indexed": true,
          "internalType": "address",
          "name": "newOwner",
          "type": "address"
        }
      ],
      "name": "OwnershipTransferred",
      "type": "event"
    },
    {
      "anonymous": false,
      "inputs": [
        {
          "indexed": true,
          "internalType": "address",
          "name": "from",
          "type": "address"
        },
        {
          "indexed": true,
          "internalType": "address",
          "name": "to",
          "type": "address"
        },
        {
          "indexed": true,
          "internalType": "uint256",
          "name": "tokenId",
          "type": "uint256"
        }
      ],
      "name": "Transfer",
      "type": "event"
    },
    {
      "anonymous": false,
      "inputs": [
        {
          "indexed": false,
          "internalType": "uint256",
          "name": "tokenId",
          "type": "uint256"
        },
        {
          "indexed": false,
          "internalType": "address",
          "name": "addressMinted",
          "type": "address"
        }
      ],
      "name": "mint",
      "type": "event"
    },
    {
      "stateMutability": "payable",
      "type": "fallback"
    },
    {
      "inputs": [
        {
          "internalType": "address",
          "name": "",
          "type": "address"
        }
      ],
      "name": "addressWithNft",
      "outputs": [
        {
          "internalType": "bool",
          "name": "",
          "type": "bool"
        }
      ],
      "stateMutability": "view",
      "type": "function"
    },
    {
      "inputs": [
        {
          "internalType": "address",
          "name": "to",
          "type": "address"
        },
        {
          "internalType": "uint256",
          "name": "tokenId",
          "type": "uint256"
        }
      ],
      "name": "approve",
      "outputs": [],
      "stateMutability": "nonpayable",
      "type": "function"
    },
    {
      "inputs": [
        {
          "internalType": "address",
          "name": "owner",
          "type": "address"
        }
      ],
      "name": "balanceOf",
      "outputs": [
        {
          "internalType": "uint256",
          "name": "",
          "type": "uint256"
        }
      ],
      "stateMutability": "view",
      "type": "function"
    },
    {
      "inputs": [
        {
          "internalType": "enum NftMint.state",
          "name": "_state",
          "type": "uint8"
        }
      ],
      "name": "changeState",
      "outputs": [],
      "stateMutability": "nonpayable",
      "type": "function"
    },
    {
      "inputs": [
        {
          "internalType": "uint256",
          "name": "tokenId",
          "type": "uint256"
        }
      ],
      "name": "getApproved",
      "outputs": [
        {
          "internalType": "address",
          "name": "",
          "type": "address"
        }
      ],
      "stateMutability": "view",
      "type": "function"
    },
    {
      "inputs": [
        {
          "internalType": "address",
          "name": "owner",
          "type": "address"
        },
        {
          "internalType": "address",
          "name": "operator",
          "type": "address"
        }
      ],
      "name": "isApprovedForAll",
      "outputs": [
        {
          "internalType": "bool",
          "name": "",
          "type": "bool"
        }
      ],
      "stateMutability": "view",
      "type": "function"
    },
    {
      "inputs": [],
      "name": "maxTokenIds",
      "outputs": [
        {
          "internalType": "uint256",
          "name": "",
          "type": "uint256"
        }
      ],
      "stateMutability": "view",
      "type": "function"
    },
    {
      "inputs": [],
      "name": "minPublicPrice",
      "outputs": [
        {
          "internalType": "uint256",
          "name": "",
          "type": "uint256"
        }
      ],
      "stateMutability": "view",
      "type": "function"
    },
    {
      "inputs": [],
      "name": "mintPublic",
      "outputs": [],
      "stateMutability": "payable",
      "type": "function"
    },
    {
      "inputs": [],
      "name": "mintWhilisted",
      "outputs": [],
      "stateMutability": "payable",
      "type": "function"
    },
    {
      "inputs": [],
      "name": "mintWhilistedPrice",
      "outputs": [
        {
          "internalType": "uint256",
          "name": "",
          "type": "uint256"
        }
      ],
      "stateMutability": "view",
      "type": "function"
    },
    {
      "inputs": [],
      "name": "name",
      "outputs": [
        {
          "internalType": "string",
          "name": "",
          "type": "string"
        }
      ],
      "stateMutability": "view",
      "type": "function"
    },
    {
      "inputs": [],
      "name": "owner",
      "outputs": [
        {
          "internalType": "address",
          "name": "",
          "type": "address"
        }
      ],
      "stateMutability": "view",
      "type": "function"
    },
    {
      "inputs": [
        {
          "internalType": "uint256",
          "name": "tokenId",
          "type": "uint256"
        }
      ],
      "name": "ownerOf",
      "outputs": [
        {
          "internalType": "address",
          "name": "",
          "type": "address"
        }
      ],
      "stateMutability": "view",
      "type": "function"
    },
    {
      "inputs": [],
      "name": "renounceOwnership",
      "outputs": [],
      "stateMutability": "nonpayable",
      "type": "function"
    },
    {
      "inputs": [
        {
          "internalType": "address",
          "name": "from",
          "type": "address"
        },
        {
          "internalType": "address",
          "name": "to",
          "type": "address"
        },
        {
          "internalType": "uint256",
          "name": "tokenId",
          "type": "uint256"
        }
      ],
      "name": "safeTransferFrom",
      "outputs": [],
      "stateMutability": "nonpayable",
      "type": "function"
    },
    {
      "inputs": [
        {
          "internalType": "address",
          "name": "from",
          "type": "address"
        },
        {
          "internalType": "address",
          "name": "to",
          "type": "address"
        },
        {
          "internalType": "uint256",
          "name": "tokenId",
          "type": "uint256"
        },
        {
          "internalType": "bytes",
          "name": "data",
          "type": "bytes"
        }
      ],
      "name": "safeTransferFrom",
      "outputs": [],
      "stateMutability": "nonpayable",
      "type": "function"
    },
    {
      "inputs": [
        {
          "internalType": "address",
          "name": "operator",
          "type": "address"
        },
        {
          "internalType": "bool",
          "name": "approved",
          "type": "bool"
        }
      ],
      "name": "setApprovalForAll",
      "outputs": [],
      "stateMutability": "nonpayable",
      "type": "function"
    },
    {
      "inputs": [],
      "name": "stateMint",
      "outputs": [
        {
          "internalType": "enum NftMint.state",
          "name": "",
          "type": "uint8"
        }
      ],
      "stateMutability": "view",
      "type": "function"
    },
    {
      "inputs": [],
      "name": "stop",
      "outputs": [],
      "stateMutability": "nonpayable",
      "type": "function"
    },
    {
      "inputs": [
        {
          "internalType": "bytes4",
          "name": "interfaceId",
          "type": "bytes4"
        }
      ],
      "name": "supportsInterface",
      "outputs": [
        {
          "internalType": "bool",
          "name": "",
          "type": "bool"
        }
      ],
      "stateMutability": "view",
      "type": "function"
    },
    {
      "inputs": [],
      "name": "symbol",
      "outputs": [
        {
          "internalType": "string",
          "name": "",
          "type": "string"
        }
      ],
      "stateMutability": "view",
      "type": "function"
    },
    {
      "inputs": [
        {
          "internalType": "uint256",
          "name": "index",
          "type": "uint256"
        }
      ],
      "name": "tokenByIndex",
      "outputs": [
        {
          "internalType": "uint256",
          "name": "",
          "type": "uint256"
        }
      ],
      "stateMutability": "view",
      "type": "function"
    },
    {
      "inputs": [],
      "name": "tokenId",
      "outputs": [
        {
          "internalType": "uint256",
          "name": "",
          "type": "uint256"
        }
      ],
      "stateMutability": "view",
      "type": "function"
    },
    {
      "inputs": [
        {
          "internalType": "address",
          "name": "owner",
          "type": "address"
        },
        {
          "internalType": "uint256",
          "name": "index",
          "type": "uint256"
        }
      ],
      "name": "tokenOfOwnerByIndex",
      "outputs": [
        {
          "internalType": "uint256",
          "name": "",
          "type": "uint256"
        }
      ],
      "stateMutability": "view",
      "type": "function"
    },
    {
      "inputs": [
        {
          "internalType": "uint256",
          "name": "tokenId",
          "type": "uint256"
        }
      ],
      "name": "tokenURI",
      "outputs": [
        {
          "internalType": "string",
          "name": "",
          "type": "string"
        }
      ],
      "stateMutability": "view",
      "type": "function"
    },
    {
      "inputs": [
        {
          "internalType": "uint256",
          "name": "",
          "type": "uint256"
        }
      ],
      "name": "tokensUrl",
      "outputs": [
        {
          "internalType": "string",
          "name": "",
          "type": "string"
        }
      ],
      "stateMutability": "view",
      "type": "function"
    },
    {
      "inputs": [],
      "name": "totalSupply",
      "outputs": [
        {
          "internalType": "uint256",
          "name": "",
          "type": "uint256"
        }
      ],
      "stateMutability": "view",
      "type": "function"
    },
    {
      "inputs": [
        {
          "internalType": "address",
          "name": "from",
          "type": "address"
        },
        {
          "internalType": "address",
          "name": "to",
          "type": "address"
        },
        {
          "internalType": "uint256",
          "name": "tokenId",
          "type": "uint256"
        }
      ],
      "name": "transferFrom",
      "outputs": [],
      "stateMutability": "nonpayable",
      "type": "function"
    },
    {
      "inputs": [
        {
          "internalType": "address",
          "name": "newOwner",
          "type": "address"
        }
      ],
      "name": "transferOwnership",
      "outputs": [],
      "stateMutability": "nonpayable",
      "type": "function"
    },
    {
      "inputs": [],
      "name": "whitelistedPeople",
      "outputs": [
        {
          "internalType": "contract Iwhitelisted",
          "name": "",
          "type": "address"
        }
      ],
      "stateMutability": "view",
      "type": "function"
    },
    {
      "inputs": [],
      "name": "whitelistedTime",
      "outputs": [
        {
          "internalType": "uint256",
          "name": "",
          "type": "uint256"
        }
      ],
      "stateMutability": "view",
      "type": "function"
    },
    {
      "inputs": [
        {
          "internalType": "address payable",
          "name": "_address",
          "type": "address"
        }
      ],
      "name": "withdraw",
      "outputs": [],
      "stateMutability": "nonpayable",
      "type": "function"
    },
    {
      "stateMutability": "payable",
      "type": "receive"
    }
  ],
  "transactionHash": "0x51101b2a04250be6fd9560850cfb593bc81b6640b7cf63f89698c2af959240b5",
  "args": [
    "0x5FbDB2315678afecb367f032d93F642f64180aa3",
    [
      "ipfs://QmRV8uaU554UGKz1TMkeSNT3vDSVXG7J347yZpNbBShhC7",
      "ipfs://QmaVkBn2tKmjbhphU7eyztbvSQU5EXDdqRyXZtRhSGgJGo",
      "ipfs://QmYQC5aGZu2PTH8XzbJrbDnvhj3gVs7ya33H9mqUNvST3d",
      "ipfs://QmZYmH5iDbD6v3U2ixoVAjioSzvWJszDzYdbeCLquGSpVm"
    ]
  ],
  "numDeployments": 1,
  "solcInputHash": "1ae7989a3a7d7068670ea72ecbda1e28",
  "bytecode": "0x60c06040526000600d553480156200001657600080fd5b50604051620050f7380380620050f783398181016040528101906200003c919062000556565b6040518060400160405280600681526020017f426173696c7300000000000000000000000000000000000000000000000000008152506040518060400160405280600281526020017f42730000000000000000000000000000000000000000000000000000000000008152508160009080519060200190620000c09291906200028b565b508060019080519060200190620000d99291906200028b565b505050620000fc620000f0620001bd60201b60201c565b620001c560201b60201c565b8173ffffffffffffffffffffffffffffffffffffffff1660a08173ffffffffffffffffffffffffffffffffffffffff1660601b8152505061012c426200014391906200063e565b608081815250506001600b60146101000a81548160ff0219169083600281111562000197577f4e487b7100000000000000000000000000000000000000000000000000000000600052602160045260246000fd5b021790555080600e9080519060200190620001b49291906200031c565b50505062000833565b600033905090565b6000600b60009054906101000a900473ffffffffffffffffffffffffffffffffffffffff16905081600b60006101000a81548173ffffffffffffffffffffffffffffffffffffffff021916908373ffffffffffffffffffffffffffffffffffffffff1602179055508173ffffffffffffffffffffffffffffffffffffffff168173ffffffffffffffffffffffffffffffffffffffff167f8be0079c531659141344cd1fd0a4f28419497f9722a3daafe3b4186f6b6457e060405160405180910390a35050565b82805462000299906200070f565b90600052602060002090601f016020900481019282620002bd576000855562000309565b82601f10620002d857805160ff191683800117855562000309565b8280016001018555821562000309579182015b8281111562000308578251825591602001919060010190620002eb565b5b50905062000318919062000383565b5090565b82805482825590600052602060002090810192821562000370579160200282015b828111156200036f5782518290805190602001906200035e9291906200028b565b50916020019190600101906200033d565b5b5090506200037f9190620003a2565b5090565b5b808211156200039e57600081600090555060010162000384565b5090565b5b80821115620003c65760008181620003bc9190620003ca565b50600101620003a3565b5090565b508054620003d8906200070f565b6000825580601f10620003ec57506200040d565b601f0160209004906000526020600020908101906200040c919062000383565b5b50565b6000620004276200042184620005d9565b620005b0565b905080838252602082019050828560208602820111156200044757600080fd5b60005b858110156200049657815167ffffffffffffffff8111156200046b57600080fd5b8086016200047a898262000529565b855260208501945060208401935050506001810190506200044a565b5050509392505050565b6000620004b7620004b18462000608565b620005b0565b905082815260208101848484011115620004d057600080fd5b620004dd848285620006d9565b509392505050565b600081519050620004f68162000819565b92915050565b600082601f8301126200050e57600080fd5b81516200052084826020860162000410565b91505092915050565b600082601f8301126200053b57600080fd5b81516200054d848260208601620004a0565b91505092915050565b600080604083850312156200056a57600080fd5b60006200057a85828601620004e5565b925050602083015167ffffffffffffffff8111156200059857600080fd5b620005a685828601620004fc565b9150509250929050565b6000620005bc620005cf565b9050620005ca828262000745565b919050565b6000604051905090565b600067ffffffffffffffff821115620005f757620005f6620007d9565b5b602082029050602081019050919050565b600067ffffffffffffffff821115620006265762000625620007d9565b5b620006318262000808565b9050602081019050919050565b60006200064b82620006cf565b91506200065883620006cf565b9250827fffffffffffffffffffffffffffffffffffffffffffffffffffffffffffffffff0382111562000690576200068f6200077b565b5b828201905092915050565b6000620006a882620006af565b9050919050565b600073ffffffffffffffffffffffffffffffffffffffff82169050919050565b6000819050919050565b60005b83811015620006f9578082015181840152602081019050620006dc565b8381111562000709576000848401525b50505050565b600060028204905060018216806200072857607f821691505b602082108114156200073f576200073e620007aa565b5b50919050565b620007508262000808565b810181811067ffffffffffffffff82111715620007725762000771620007d9565b5b80604052505050565b7f4e487b7100000000000000000000000000000000000000000000000000000000600052601160045260246000fd5b7f4e487b7100000000000000000000000000000000000000000000000000000000600052602260045260246000fd5b7f4e487b7100000000000000000000000000000000000000000000000000000000600052604160045260246000fd5b6000601f19601f8301169050919050565b62000824816200069b565b81146200083057600080fd5b50565b60805160a05160601c6148866200087160003960008181610a1f0152610c6f015260008181610b11015281816113e001526117bc01526148866000f3fe6080604052600436106101f25760003560e01c80634f6ccce71161010d5780638da5cb5b116100a0578063b88d4fde1161006f578063b88d4fde146106b7578063c87b56dd146106e0578063cf288aad1461071d578063e985e9c51461075a578063f2fde38b14610797576101f9565b80638da5cb5b1461060d578063903eab921461063857806395d89b4114610663578063a22cb4651461068e576101f9565b8063701b1b15116100dc578063701b1b151461058457806370a08231146105af578063715018a6146105ec5780638c874ebd14610603576101f9565b80634f6ccce7146104b657806351cff8d9146104f35780635f7696211461051c5780636352211e14610547576101f9565b806323b872dd11610185578063378c277011610154578063378c2770146103fa57806342842e0e1461043757806343688248146104605780634a7bd4041461048b576101f9565b806323b872dd14610361578063268f11531461038a5780632ee8381e146103b35780632f745c59146103bd576101f9565b8063095ea7b3116101c1578063095ea7b3146102b7578063122840b1146102e057806317d70f7c1461030b57806318160ddd14610336576101f9565b806301ffc9a7146101fb57806306fdde031461023857806307da68f514610263578063081812fc1461027a576101f9565b366101f957005b005b34801561020757600080fd5b50610222600480360381019061021d9190613792565b6107c0565b60405161022f9190613c5d565b60405180910390f35b34801561024457600080fd5b5061024d6107d2565b60405161025a9190613cae565b60405180910390f35b34801561026f57600080fd5b50610278610864565b005b34801561028657600080fd5b506102a1600480360381019061029c919061380d565b6108bf565b6040516102ae9190613bf6565b60405180910390f35b3480156102c357600080fd5b506102de60048036038101906102d9919061372d565b610905565b005b3480156102ec57600080fd5b506102f5610a1d565b6040516103029190613c78565b60405180910390f35b34801561031757600080fd5b50610320610a41565b60405161032d9190613f10565b60405180910390f35b34801561034257600080fd5b5061034b610a47565b6040516103589190613f10565b60405180910390f35b34801561036d57600080fd5b5061038860048036038101906103839190613627565b610a54565b005b34801561039657600080fd5b506103b160048036038101906103ac91906137e4565b610ab4565b005b6103bb610b0f565b005b3480156103c957600080fd5b506103e460048036038101906103df919061372d565b610fa3565b6040516103f19190613f10565b60405180910390f35b34801561040657600080fd5b50610421600480360381019061041c919061380d565b611048565b60405161042e9190613cae565b60405180910390f35b34801561044357600080fd5b5061045e60048036038101906104599190613627565b6110f4565b005b34801561046c57600080fd5b50610475611114565b6040516104829190613f10565b60405180910390f35b34801561049757600080fd5b506104a0611120565b6040516104ad9190613c93565b60405180910390f35b3480156104c257600080fd5b506104dd60048036038101906104d8919061380d565b611133565b6040516104ea9190613f10565b60405180910390f35b3480156104ff57600080fd5b5061051a600480360381019061051591906135c2565b6111ca565b005b34801561052857600080fd5b50610531611279565b60405161053e9190613f10565b60405180910390f35b34801561055357600080fd5b5061056e6004803603810190610569919061380d565b61127f565b60405161057b9190613bf6565b60405180910390f35b34801561059057600080fd5b50610599611306565b6040516105a69190613f10565b60405180910390f35b3480156105bb57600080fd5b506105d660048036038101906105d19190613599565b611312565b6040516105e39190613f10565b60405180910390f35b3480156105f857600080fd5b506106016113ca565b005b61060b6113de565b005b34801561061957600080fd5b50610622611790565b60405161062f9190613bf6565b60405180910390f35b34801561064457600080fd5b5061064d6117ba565b60405161065a9190613f10565b60405180910390f35b34801561066f57600080fd5b506106786117de565b6040516106859190613cae565b60405180910390f35b34801561069a57600080fd5b506106b560048036038101906106b091906136f1565b611870565b005b3480156106c357600080fd5b506106de60048036038101906106d99190613676565b611886565b005b3480156106ec57600080fd5b506107076004803603810190610702919061380d565b6118e8565b6040516107149190613cae565b60405180910390f35b34801561072957600080fd5b50610744600480360381019061073f9190613599565b6118fa565b6040516107519190613c5d565b60405180910390f35b34801561076657600080fd5b50610781600480360381019061077c91906135eb565b61191a565b60405161078e9190613c5d565b60405180910390f35b3480156107a357600080fd5b506107be60048036038101906107b99190613599565b6119ae565b005b60006107cb82611a32565b9050919050565b6060600080546107e190614193565b80601f016020809104026020016040519081016040528092919081815260200182805461080d90614193565b801561085a5780601f1061082f5761010080835404028352916020019161085a565b820191906000526020600020905b81548152906001019060200180831161083d57829003601f168201915b5050505050905090565b61086c611aac565b6000600b60146101000a81548160ff021916908360028111156108b8577f4e487b7100000000000000000000000000000000000000000000000000000000600052602160045260246000fd5b0217905550565b60006108ca82611b2a565b6004600083815260200190815260200160002060009054906101000a900473ffffffffffffffffffffffffffffffffffffffff169050919050565b60006109108261127f565b90508073ffffffffffffffffffffffffffffffffffffffff168373ffffffffffffffffffffffffffffffffffffffff161415610981576040517f08c379a000000000000000000000000000000000000000000000000000000000815260040161097890613e90565b60405180910390fd5b8073ffffffffffffffffffffffffffffffffffffffff166109a0611b75565b73ffffffffffffffffffffffffffffffffffffffff1614806109cf57506109ce816109c9611b75565b61191a565b5b610a0e576040517f08c379a0000000000000000000000000000000000000000000000000000000008152600401610a0590613eb0565b60405180910390fd5b610a188383611b7d565b505050565b7f000000000000000000000000000000000000000000000000000000000000000081565b600d5481565b6000600880549050905090565b610a65610a5f611b75565b82611c36565b610aa4576040517f08c379a0000000000000000000000000000000000000000000000000000000008152600401610a9b90613cd0565b60405180910390fd5b610aaf838383611ccb565b505050565b610abc611aac565b80600b60146101000a81548160ff02191690836002811115610b07577f4e487b7100000000000000000000000000000000000000000000000000000000600052602160045260246000fd5b021790555050565b7f0000000000000000000000000000000000000000000000000000000000000000421115610b69576040517f89d0d5c900000000000000000000000000000000000000000000000000000000815260040160405180910390fd5b60016002811115610ba3577f4e487b7100000000000000000000000000000000000000000000000000000000600052602160045260246000fd5b600b60149054906101000a900460ff166002811115610beb577f4e487b7100000000000000000000000000000000000000000000000000000000600052602160045260246000fd5b14610c22576040517f97a2c70700000000000000000000000000000000000000000000000000000000815260040160405180910390fd5b67016345785d8a0000341015610c6d576040517f08c379a0000000000000000000000000000000000000000000000000000000008152600401610c6490613e50565b60405180910390fd5b7f000000000000000000000000000000000000000000000000000000000000000073ffffffffffffffffffffffffffffffffffffffff166306c933d8336040518263ffffffff1660e01b8152600401610cc69190613bf6565b60206040518083038186803b158015610cde57600080fd5b505afa158015610cf2573d6000803e3d6000fd5b505050506040513d601f19601f82011682018060405250810190610d169190613769565b610d4c576040517fbffbc6be00000000000000000000000000000000000000000000000000000000815260040160405180910390fd5b6103e8600d541115610d8a576040517f61563a9400000000000000000000000000000000000000000000000000000000815260040160405180910390fd5b600c60003373ffffffffffffffffffffffffffffffffffffffff1673ffffffffffffffffffffffffffffffffffffffff16815260200190815260200160002060009054906101000a900460ff1615610e0e576040517f7578c65200000000000000000000000000000000000000000000000000000000815260040160405180910390fd5b610e1a33600d54611fc5565b610ef4600d54600e600d5481548110610e5c577f4e487b7100000000000000000000000000000000000000000000000000000000600052603260045260246000fd5b906000526020600020018054610e7190614193565b80601f0160208091040260200160405190810160405280929190818152602001828054610e9d90614193565b8015610eea5780601f10610ebf57610100808354040283529160200191610eea565b820191906000526020600020905b815481529060010190602001808311610ecd57829003601f168201915b5050505050611fe3565b7f94bf804d99f2e506274f8f54327419cf422bd9efa05b9d7afe19d8049dcab16d600d5433604051610f27929190613f2b565b60405180910390a16001600d6000828254610f429190613ff8565b925050819055506001600c60003373ffffffffffffffffffffffffffffffffffffffff1673ffffffffffffffffffffffffffffffffffffffff16815260200190815260200160002060006101000a81548160ff021916908315150217905550565b6000610fae83611312565b8210610fef576040517f08c379a0000000000000000000000000000000000000000000000000000000008152600401610fe690613cf0565b60405180910390fd5b600660008473ffffffffffffffffffffffffffffffffffffffff1673ffffffffffffffffffffffffffffffffffffffff168152602001908152602001600020600083815260200190815260200160002054905092915050565b600e818154811061105857600080fd5b90600052602060002001600091509050805461107390614193565b80601f016020809104026020016040519081016040528092919081815260200182805461109f90614193565b80156110ec5780601f106110c1576101008083540402835291602001916110ec565b820191906000526020600020905b8154815290600101906020018083116110cf57829003601f168201915b505050505081565b61110f83838360405180602001604052806000815250611886565b505050565b6702c68af0bb14000081565b600b60149054906101000a900460ff1681565b600061113d610a47565b821061117e576040517f08c379a000000000000000000000000000000000000000000000000000000000815260040161117590613ed0565b60405180910390fd5b600882815481106111b8577f4e487b7100000000000000000000000000000000000000000000000000000000600052603260045260246000fd5b90600052602060002001549050919050565b6111d2611aac565b60008173ffffffffffffffffffffffffffffffffffffffff16476040516111f890613be1565b60006040518083038185875af1925050503d8060008114611235576040519150601f19603f3d011682016040523d82523d6000602084013e61123a565b606091505b5050905080611275576040517f49afc6cf00000000000000000000000000000000000000000000000000000000815260040160405180910390fd5b5050565b6103e881565b60008061128b83612057565b9050600073ffffffffffffffffffffffffffffffffffffffff168173ffffffffffffffffffffffffffffffffffffffff1614156112fd576040517f08c379a00000000000000000000000000000000000000000000000000000000081526004016112f490613e70565b60405180910390fd5b80915050919050565b67016345785d8a000081565b60008073ffffffffffffffffffffffffffffffffffffffff168273ffffffffffffffffffffffffffffffffffffffff161415611383576040517f08c379a000000000000000000000000000000000000000000000000000000000815260040161137a90613dd0565b60405180910390fd5b600360008373ffffffffffffffffffffffffffffffffffffffff1673ffffffffffffffffffffffffffffffffffffffff168152602001908152602001600020549050919050565b6113d2611aac565b6113dc6000612094565b565b7f0000000000000000000000000000000000000000000000000000000000000000421015611438576040517f434fb9e800000000000000000000000000000000000000000000000000000000815260040160405180910390fd5b600280811115611471577f4e487b7100000000000000000000000000000000000000000000000000000000600052602160045260246000fd5b600b60149054906101000a900460ff1660028111156114b9577f4e487b7100000000000000000000000000000000000000000000000000000000600052602160045260246000fd5b146114f0576040517fdde03f9a00000000000000000000000000000000000000000000000000000000815260040160405180910390fd5b6702c68af0bb14000034101561153b576040517f08c379a000000000000000000000000000000000000000000000000000000000815260040161153290613e50565b60405180910390fd5b6103e8600d541115611579576040517f61563a9400000000000000000000000000000000000000000000000000000000815260040160405180910390fd5b600c60003373ffffffffffffffffffffffffffffffffffffffff1673ffffffffffffffffffffffffffffffffffffffff16815260200190815260200160002060009054906101000a900460ff16156115fd576040517f7578c65200000000000000000000000000000000000000000000000000000000815260040160405180910390fd5b61160933600d54611fc5565b6116e3600d54600e600d548154811061164b577f4e487b7100000000000000000000000000000000000000000000000000000000600052603260045260246000fd5b90600052602060002001805461166090614193565b80601f016020809104026020016040519081016040528092919081815260200182805461168c90614193565b80156116d95780601f106116ae576101008083540402835291602001916116d9565b820191906000526020600020905b8154815290600101906020018083116116bc57829003601f168201915b5050505050611fe3565b7f94bf804d99f2e506274f8f54327419cf422bd9efa05b9d7afe19d8049dcab16d600d5433604051611716929190613f2b565b60405180910390a1600d6000815480929190611731906141f6565b91905055506001600c60003373ffffffffffffffffffffffffffffffffffffffff1673ffffffffffffffffffffffffffffffffffffffff16815260200190815260200160002060006101000a81548160ff021916908315150217905550565b6000600b60009054906101000a900473ffffffffffffffffffffffffffffffffffffffff16905090565b7f000000000000000000000000000000000000000000000000000000000000000081565b6060600180546117ed90614193565b80601f016020809104026020016040519081016040528092919081815260200182805461181990614193565b80156118665780601f1061183b57610100808354040283529160200191611866565b820191906000526020600020905b81548152906001019060200180831161184957829003601f168201915b5050505050905090565b61188261187b611b75565b838361215a565b5050565b611897611891611b75565b83611c36565b6118d6576040517f08c379a00000000000000000000000000000000000000000000000000000000081526004016118cd90613cd0565b60405180910390fd5b6118e2848484846122c7565b50505050565b60606118f382612323565b9050919050565b600c6020528060005260406000206000915054906101000a900460ff1681565b6000600560008473ffffffffffffffffffffffffffffffffffffffff1673ffffffffffffffffffffffffffffffffffffffff16815260200190815260200160002060008373ffffffffffffffffffffffffffffffffffffffff1673ffffffffffffffffffffffffffffffffffffffff16815260200190815260200160002060009054906101000a900460ff16905092915050565b6119b6611aac565b600073ffffffffffffffffffffffffffffffffffffffff168173ffffffffffffffffffffffffffffffffffffffff161415611a26576040517f08c379a0000000000000000000000000000000000000000000000000000000008152600401611a1d90613d30565b60405180910390fd5b611a2f81612094565b50565b60007f780e9d63000000000000000000000000000000000000000000000000000000007bffffffffffffffffffffffffffffffffffffffffffffffffffffffff1916827bffffffffffffffffffffffffffffffffffffffffffffffffffffffff19161480611aa55750611aa482612436565b5b9050919050565b611ab4611b75565b73ffffffffffffffffffffffffffffffffffffffff16611ad2611790565b73ffffffffffffffffffffffffffffffffffffffff1614611b28576040517f08c379a0000000000000000000000000000000000000000000000000000000008152600401611b1f90613e30565b60405180910390fd5b565b611b3381612518565b611b72576040517f08c379a0000000000000000000000000000000000000000000000000000000008152600401611b6990613e70565b60405180910390fd5b50565b600033905090565b816004600083815260200190815260200160002060006101000a81548173ffffffffffffffffffffffffffffffffffffffff021916908373ffffffffffffffffffffffffffffffffffffffff160217905550808273ffffffffffffffffffffffffffffffffffffffff16611bf08361127f565b73ffffffffffffffffffffffffffffffffffffffff167f8c5be1e5ebec7d5bd14f71427d1e84f3dd0314c0f7b2291e5b200ac8c7c3b92560405160405180910390a45050565b600080611c428361127f565b90508073ffffffffffffffffffffffffffffffffffffffff168473ffffffffffffffffffffffffffffffffffffffff161480611c845750611c83818561191a565b5b80611cc257508373ffffffffffffffffffffffffffffffffffffffff16611caa846108bf565b73ffffffffffffffffffffffffffffffffffffffff16145b91505092915050565b8273ffffffffffffffffffffffffffffffffffffffff16611ceb8261127f565b73ffffffffffffffffffffffffffffffffffffffff1614611d41576040517f08c379a0000000000000000000000000000000000000000000000000000000008152600401611d3890613d50565b60405180910390fd5b600073ffffffffffffffffffffffffffffffffffffffff168273ffffffffffffffffffffffffffffffffffffffff161415611db1576040517f08c379a0000000000000000000000000000000000000000000000000000000008152600401611da890613d90565b60405180910390fd5b611dbe8383836001612559565b8273ffffffffffffffffffffffffffffffffffffffff16611dde8261127f565b73ffffffffffffffffffffffffffffffffffffffff1614611e34576040517f08c379a0000000000000000000000000000000000000000000000000000000008152600401611e2b90613d50565b60405180910390fd5b6004600082815260200190815260200160002060006101000a81549073ffffffffffffffffffffffffffffffffffffffff02191690556001600360008573ffffffffffffffffffffffffffffffffffffffff1673ffffffffffffffffffffffffffffffffffffffff168152602001908152602001600020600082825403925050819055506001600360008473ffffffffffffffffffffffffffffffffffffffff1673ffffffffffffffffffffffffffffffffffffffff16815260200190815260200160002060008282540192505081905550816002600083815260200190815260200160002060006101000a81548173ffffffffffffffffffffffffffffffffffffffff021916908373ffffffffffffffffffffffffffffffffffffffff160217905550808273ffffffffffffffffffffffffffffffffffffffff168473ffffffffffffffffffffffffffffffffffffffff167fddf252ad1be2c89b69c2b068fc378daa952ba7f163c4a11628f55a4df523b3ef60405160405180910390a4611fc0838383600161256b565b505050565b611fdf828260405180602001604052806000815250612571565b5050565b611fec82612518565b61202b576040517f08c379a000000000000000000000000000000000000000000000000000000000815260040161202290613df0565b60405180910390fd5b80600a600084815260200190815260200160002090805190602001906120529291906133e6565b505050565b60006002600083815260200190815260200160002060009054906101000a900473ffffffffffffffffffffffffffffffffffffffff169050919050565b6000600b60009054906101000a900473ffffffffffffffffffffffffffffffffffffffff16905081600b60006101000a81548173ffffffffffffffffffffffffffffffffffffffff021916908373ffffffffffffffffffffffffffffffffffffffff1602179055508173ffffffffffffffffffffffffffffffffffffffff168173ffffffffffffffffffffffffffffffffffffffff167f8be0079c531659141344cd1fd0a4f28419497f9722a3daafe3b4186f6b6457e060405160405180910390a35050565b8173ffffffffffffffffffffffffffffffffffffffff168373ffffffffffffffffffffffffffffffffffffffff1614156121c9576040517f08c379a00000000000000000000000000000000000000000000000000000000081526004016121c090613db0565b60405180910390fd5b80600560008573ffffffffffffffffffffffffffffffffffffffff1673ffffffffffffffffffffffffffffffffffffffff16815260200190815260200160002060008473ffffffffffffffffffffffffffffffffffffffff1673ffffffffffffffffffffffffffffffffffffffff16815260200190815260200160002060006101000a81548160ff0219169083151502179055508173ffffffffffffffffffffffffffffffffffffffff168373ffffffffffffffffffffffffffffffffffffffff167f17307eab39ab6107e8899845ad3d59bd9653f200f220920489ca2b5937696c31836040516122ba9190613c5d565b60405180910390a3505050565b6122d2848484611ccb565b6122de848484846125cc565b61231d576040517f08c379a000000000000000000000000000000000000000000000000000000000815260040161231490613d10565b60405180910390fd5b50505050565b606061232e82611b2a565b6000600a6000848152602001908152602001600020805461234e90614193565b80601f016020809104026020016040519081016040528092919081815260200182805461237a90614193565b80156123c75780601f1061239c576101008083540402835291602001916123c7565b820191906000526020600020905b8154815290600101906020018083116123aa57829003601f168201915b5050505050905060006123d8612763565b90506000815114156123ee578192505050612431565b60008251111561242357808260405160200161240b929190613bbd565b60405160208183030381529060405292505050612431565b61242c8461277a565b925050505b919050565b60007f80ac58cd000000000000000000000000000000000000000000000000000000007bffffffffffffffffffffffffffffffffffffffffffffffffffffffff1916827bffffffffffffffffffffffffffffffffffffffffffffffffffffffff1916148061250157507f5b5e139f000000000000000000000000000000000000000000000000000000007bffffffffffffffffffffffffffffffffffffffffffffffffffffffff1916827bffffffffffffffffffffffffffffffffffffffffffffffffffffffff1916145b806125115750612510826127e2565b5b9050919050565b60008073ffffffffffffffffffffffffffffffffffffffff1661253a83612057565b73ffffffffffffffffffffffffffffffffffffffff1614159050919050565b6125658484848461284c565b50505050565b50505050565b61257b83836129ac565b61258860008484846125cc565b6125c7576040517f08c379a00000000000000000000000000000000000000000000000000000000081526004016125be90613d10565b60405180910390fd5b505050565b60006125ed8473ffffffffffffffffffffffffffffffffffffffff16612bca565b15612756578373ffffffffffffffffffffffffffffffffffffffff1663150b7a02612616611b75565b8786866040518563ffffffff1660e01b81526004016126389493929190613c11565b602060405180830381600087803b15801561265257600080fd5b505af192505050801561268357506040513d601f19601f8201168201806040525081019061268091906137bb565b60015b612706573d80600081146126b3576040519150601f19603f3d011682016040523d82523d6000602084013e6126b8565b606091505b506000815114156126fe576040517f08c379a00000000000000000000000000000000000000000000000000000000081526004016126f590613d10565b60405180910390fd5b805181602001fd5b63150b7a0260e01b7bffffffffffffffffffffffffffffffffffffffffffffffffffffffff1916817bffffffffffffffffffffffffffffffffffffffffffffffffffffffff19161491505061275b565b600190505b949350505050565b606060405180602001604052806000815250905090565b606061278582611b2a565b600061278f612763565b905060008151116127af57604051806020016040528060008152506127da565b806127b984612bed565b6040516020016127ca929190613bbd565b6040516020818303038152906040525b915050919050565b60007f01ffc9a7000000000000000000000000000000000000000000000000000000007bffffffffffffffffffffffffffffffffffffffffffffffffffffffff1916827bffffffffffffffffffffffffffffffffffffffffffffffffffffffff1916149050919050565b61285884848484612d11565b600181111561289c576040517f08c379a000000000000000000000000000000000000000000000000000000000815260040161289390613ef0565b60405180910390fd5b6000829050600073ffffffffffffffffffffffffffffffffffffffff168573ffffffffffffffffffffffffffffffffffffffff1614156128e4576128df81612e37565b612923565b8373ffffffffffffffffffffffffffffffffffffffff168573ffffffffffffffffffffffffffffffffffffffff1614612922576129218582612e80565b5b5b600073ffffffffffffffffffffffffffffffffffffffff168473ffffffffffffffffffffffffffffffffffffffff1614156129665761296181612fed565b6129a5565b8473ffffffffffffffffffffffffffffffffffffffff168473ffffffffffffffffffffffffffffffffffffffff16146129a4576129a38482613130565b5b5b5050505050565b600073ffffffffffffffffffffffffffffffffffffffff168273ffffffffffffffffffffffffffffffffffffffff161415612a1c576040517f08c379a0000000000000000000000000000000000000000000000000000000008152600401612a1390613e10565b60405180910390fd5b612a2581612518565b15612a65576040517f08c379a0000000000000000000000000000000000000000000000000000000008152600401612a5c90613d70565b60405180910390fd5b612a73600083836001612559565b612a7c81612518565b15612abc576040517f08c379a0000000000000000000000000000000000000000000000000000000008152600401612ab390613d70565b60405180910390fd5b6001600360008473ffffffffffffffffffffffffffffffffffffffff1673ffffffffffffffffffffffffffffffffffffffff16815260200190815260200160002060008282540192505081905550816002600083815260200190815260200160002060006101000a81548173ffffffffffffffffffffffffffffffffffffffff021916908373ffffffffffffffffffffffffffffffffffffffff160217905550808273ffffffffffffffffffffffffffffffffffffffff16600073ffffffffffffffffffffffffffffffffffffffff167fddf252ad1be2c89b69c2b068fc378daa952ba7f163c4a11628f55a4df523b3ef60405160405180910390a4612bc660008383600161256b565b5050565b6000808273ffffffffffffffffffffffffffffffffffffffff163b119050919050565b606060006001612bfc846131af565b01905060008167ffffffffffffffff811115612c41577f4e487b7100000000000000000000000000000000000000000000000000000000600052604160045260246000fd5b6040519080825280601f01601f191660200182016040528015612c735781602001600182028036833780820191505090505b509050600082602001820190505b600115612d06578080600190039150507f3031323334353637383961626364656600000000000000000000000000000000600a86061a8153600a8581612cf0577f4e487b7100000000000000000000000000000000000000000000000000000000600052601260045260246000fd5b0494506000851415612d0157612d06565b612c81565b819350505050919050565b6001811115612e3157600073ffffffffffffffffffffffffffffffffffffffff168473ffffffffffffffffffffffffffffffffffffffff1614612da55780600360008673ffffffffffffffffffffffffffffffffffffffff1673ffffffffffffffffffffffffffffffffffffffff1681526020019081526020016000206000828254612d9d919061404e565b925050819055505b600073ffffffffffffffffffffffffffffffffffffffff168373ffffffffffffffffffffffffffffffffffffffff1614612e305780600360008573ffffffffffffffffffffffffffffffffffffffff1673ffffffffffffffffffffffffffffffffffffffff1681526020019081526020016000206000828254612e289190613ff8565b925050819055505b5b50505050565b6008805490506009600083815260200190815260200160002081905550600881908060018154018082558091505060019003906000526020600020016000909190919091505550565b60006001612e8d84611312565b612e97919061404e565b9050600060076000848152602001908152602001600020549050818114612f7c576000600660008673ffffffffffffffffffffffffffffffffffffffff1673ffffffffffffffffffffffffffffffffffffffff168152602001908152602001600020600084815260200190815260200160002054905080600660008773ffffffffffffffffffffffffffffffffffffffff1673ffffffffffffffffffffffffffffffffffffffff168152602001908152602001600020600084815260200190815260200160002081905550816007600083815260200190815260200160002081905550505b6007600084815260200190815260200160002060009055600660008573ffffffffffffffffffffffffffffffffffffffff1673ffffffffffffffffffffffffffffffffffffffff16815260200190815260200160002060008381526020019081526020016000206000905550505050565b60006001600880549050613001919061404e565b9050600060096000848152602001908152602001600020549050600060088381548110613057577f4e487b7100000000000000000000000000000000000000000000000000000000600052603260045260246000fd5b90600052602060002001549050806008838154811061309f577f4e487b7100000000000000000000000000000000000000000000000000000000600052603260045260246000fd5b906000526020600020018190555081600960008381526020019081526020016000208190555060096000858152602001908152602001600020600090556008805480613114577f4e487b7100000000000000000000000000000000000000000000000000000000600052603160045260246000fd5b6001900381819060005260206000200160009055905550505050565b600061313b83611312565b905081600660008573ffffffffffffffffffffffffffffffffffffffff1673ffffffffffffffffffffffffffffffffffffffff168152602001908152602001600020600083815260200190815260200160002081905550806007600084815260200190815260200160002081905550505050565b600080600090507a184f03e93ff9f4daa797ed6e38ed64bf6a1f0100000000000000008310613233577a184f03e93ff9f4daa797ed6e38ed64bf6a1f0100000000000000008381613229577f4e487b7100000000000000000000000000000000000000000000000000000000600052601260045260246000fd5b0492506040810190505b6d04ee2d6d415b85acef81000000008310613296576d04ee2d6d415b85acef8100000000838161328c577f4e487b7100000000000000000000000000000000000000000000000000000000600052601260045260246000fd5b0492506020810190505b662386f26fc1000083106132eb57662386f26fc1000083816132e1577f4e487b7100000000000000000000000000000000000000000000000000000000600052601260045260246000fd5b0492506010810190505b6305f5e100831061333a576305f5e1008381613330577f4e487b7100000000000000000000000000000000000000000000000000000000600052601260045260246000fd5b0492506008810190505b612710831061338557612710838161337b577f4e487b7100000000000000000000000000000000000000000000000000000000600052601260045260246000fd5b0492506004810190505b606483106133ce57606483816133c4577f4e487b7100000000000000000000000000000000000000000000000000000000600052601260045260246000fd5b0492506002810190505b600a83106133dd576001810190505b80915050919050565b8280546133f290614193565b90600052602060002090601f016020900481019282613414576000855561345b565b82601f1061342d57805160ff191683800117855561345b565b8280016001018555821561345b579182015b8281111561345a57825182559160200191906001019061343f565b5b509050613468919061346c565b5090565b5b8082111561348557600081600090555060010161346d565b5090565b600061349c61349784613f79565b613f54565b9050828152602081018484840111156134b457600080fd5b6134bf848285614151565b509392505050565b6000813590506134d6816147cd565b92915050565b6000813590506134eb816147e4565b92915050565b600081359050613500816147fb565b92915050565b600081519050613515816147fb565b92915050565b60008135905061352a81614812565b92915050565b60008151905061353f81614812565b92915050565b600082601f83011261355657600080fd5b8135613566848260208601613489565b91505092915050565b60008135905061357e81614829565b92915050565b60008135905061359381614839565b92915050565b6000602082840312156135ab57600080fd5b60006135b9848285016134c7565b91505092915050565b6000602082840312156135d457600080fd5b60006135e2848285016134dc565b91505092915050565b600080604083850312156135fe57600080fd5b600061360c858286016134c7565b925050602061361d858286016134c7565b9150509250929050565b60008060006060848603121561363c57600080fd5b600061364a868287016134c7565b935050602061365b868287016134c7565b925050604061366c86828701613584565b9150509250925092565b6000806000806080858703121561368c57600080fd5b600061369a878288016134c7565b94505060206136ab878288016134c7565b93505060406136bc87828801613584565b925050606085013567ffffffffffffffff8111156136d957600080fd5b6136e587828801613545565b91505092959194509250565b6000806040838503121561370457600080fd5b6000613712858286016134c7565b9250506020613723858286016134f1565b9150509250929050565b6000806040838503121561374057600080fd5b600061374e858286016134c7565b925050602061375f85828601613584565b9150509250929050565b60006020828403121561377b57600080fd5b600061378984828501613506565b91505092915050565b6000602082840312156137a457600080fd5b60006137b28482850161351b565b91505092915050565b6000602082840312156137cd57600080fd5b60006137db84828501613530565b91505092915050565b6000602082840312156137f657600080fd5b60006138048482850161356f565b91505092915050565b60006020828403121561381f57600080fd5b600061382d84828501613584565b91505092915050565b61383f81614082565b82525050565b61384e816140a6565b82525050565b600061385f82613faa565b6138698185613fc0565b9350613879818560208601614160565b613882816142fb565b840191505092915050565b6138968161411b565b82525050565b6138a58161413f565b82525050565b60006138b682613fb5565b6138c08185613fdc565b93506138d0818560208601614160565b6138d9816142fb565b840191505092915050565b60006138ef82613fb5565b6138f98185613fed565b9350613909818560208601614160565b80840191505092915050565b6000613922602d83613fdc565b915061392d8261430c565b604082019050919050565b6000613945602b83613fdc565b91506139508261435b565b604082019050919050565b6000613968603283613fdc565b9150613973826143aa565b604082019050919050565b600061398b602683613fdc565b9150613996826143f9565b604082019050919050565b60006139ae602583613fdc565b91506139b982614448565b604082019050919050565b60006139d1601c83613fdc565b91506139dc82614497565b602082019050919050565b60006139f4602483613fdc565b91506139ff826144c0565b604082019050919050565b6000613a17601983613fdc565b9150613a228261450f565b602082019050919050565b6000613a3a602983613fdc565b9150613a4582614538565b604082019050919050565b6000613a5d602e83613fdc565b9150613a6882614587565b604082019050919050565b6000613a80602083613fdc565b9150613a8b826145d6565b602082019050919050565b6000613aa3602083613fdc565b9150613aae826145ff565b602082019050919050565b6000613ac6600f83613fdc565b9150613ad182614628565b602082019050919050565b6000613ae9601883613fdc565b9150613af482614651565b602082019050919050565b6000613b0c602183613fdc565b9150613b178261467a565b604082019050919050565b6000613b2f600083613fd1565b9150613b3a826146c9565b600082019050919050565b6000613b52603d83613fdc565b9150613b5d826146cc565b604082019050919050565b6000613b75602c83613fdc565b9150613b808261471b565b604082019050919050565b6000613b98603583613fdc565b9150613ba38261476a565b604082019050919050565b613bb781614111565b82525050565b6000613bc982856138e4565b9150613bd582846138e4565b91508190509392505050565b6000613bec82613b22565b9150819050919050565b6000602082019050613c0b6000830184613836565b92915050565b6000608082019050613c266000830187613836565b613c336020830186613836565b613c406040830185613bae565b8181036060830152613c528184613854565b905095945050505050565b6000602082019050613c726000830184613845565b92915050565b6000602082019050613c8d600083018461388d565b92915050565b6000602082019050613ca8600083018461389c565b92915050565b60006020820190508181036000830152613cc881846138ab565b905092915050565b60006020820190508181036000830152613ce981613915565b9050919050565b60006020820190508181036000830152613d0981613938565b9050919050565b60006020820190508181036000830152613d298161395b565b9050919050565b60006020820190508181036000830152613d498161397e565b9050919050565b60006020820190508181036000830152613d69816139a1565b9050919050565b60006020820190508181036000830152613d89816139c4565b9050919050565b60006020820190508181036000830152613da9816139e7565b9050919050565b60006020820190508181036000830152613dc981613a0a565b9050919050565b60006020820190508181036000830152613de981613a2d565b9050919050565b60006020820190508181036000830152613e0981613a50565b9050919050565b60006020820190508181036000830152613e2981613a73565b9050919050565b60006020820190508181036000830152613e4981613a96565b9050919050565b60006020820190508181036000830152613e6981613ab9565b9050919050565b60006020820190508181036000830152613e8981613adc565b9050919050565b60006020820190508181036000830152613ea981613aff565b9050919050565b60006020820190508181036000830152613ec981613b45565b9050919050565b60006020820190508181036000830152613ee981613b68565b9050919050565b60006020820190508181036000830152613f0981613b8b565b9050919050565b6000602082019050613f256000830184613bae565b92915050565b6000604082019050613f406000830185613bae565b613f4d6020830184613836565b9392505050565b6000613f5e613f6f565b9050613f6a82826141c5565b919050565b6000604051905090565b600067ffffffffffffffff821115613f9457613f936142cc565b5b613f9d826142fb565b9050602081019050919050565b600081519050919050565b600081519050919050565b600082825260208201905092915050565b600081905092915050565b600082825260208201905092915050565b600081905092915050565b600061400382614111565b915061400e83614111565b9250827fffffffffffffffffffffffffffffffffffffffffffffffffffffffffffffffff038211156140435761404261423f565b5b828201905092915050565b600061405982614111565b915061406483614111565b9250828210156140775761407661423f565b5b828203905092915050565b600061408d826140f1565b9050919050565b600061409f826140f1565b9050919050565b60008115159050919050565b60007fffffffff0000000000000000000000000000000000000000000000000000000082169050919050565b60008190506140ec826147b9565b919050565b600073ffffffffffffffffffffffffffffffffffffffff82169050919050565b6000819050919050565b60006141268261412d565b9050919050565b6000614138826140f1565b9050919050565b600061414a826140de565b9050919050565b82818337600083830152505050565b60005b8381101561417e578082015181840152602081019050614163565b8381111561418d576000848401525b50505050565b600060028204905060018216806141ab57607f821691505b602082108114156141bf576141be61429d565b5b50919050565b6141ce826142fb565b810181811067ffffffffffffffff821117156141ed576141ec6142cc565b5b80604052505050565b600061420182614111565b91507fffffffffffffffffffffffffffffffffffffffffffffffffffffffffffffffff8214156142345761423361423f565b5b600182019050919050565b7f4e487b7100000000000000000000000000000000000000000000000000000000600052601160045260246000fd5b7f4e487b7100000000000000000000000000000000000000000000000000000000600052602160045260246000fd5b7f4e487b7100000000000000000000000000000000000000000000000000000000600052602260045260246000fd5b7f4e487b7100000000000000000000000000000000000000000000000000000000600052604160045260246000fd5b6000601f19601f8301169050919050565b7f4552433732313a2063616c6c6572206973206e6f7420746f6b656e206f776e6560008201527f72206f7220617070726f76656400000000000000000000000000000000000000602082015250565b7f455243373231456e756d657261626c653a206f776e657220696e646578206f7560008201527f74206f6620626f756e6473000000000000000000000000000000000000000000602082015250565b7f4552433732313a207472616e7366657220746f206e6f6e20455243373231526560008201527f63656976657220696d706c656d656e7465720000000000000000000000000000602082015250565b7f4f776e61626c653a206e6577206f776e657220697320746865207a65726f206160008201527f6464726573730000000000000000000000000000000000000000000000000000602082015250565b7f4552433732313a207472616e736665722066726f6d20696e636f72726563742060008201527f6f776e6572000000000000000000000000000000000000000000000000000000602082015250565b7f4552433732313a20746f6b656e20616c7265616479206d696e74656400000000600082015250565b7f4552433732313a207472616e7366657220746f20746865207a65726f2061646460008201527f7265737300000000000000000000000000000000000000000000000000000000602082015250565b7f4552433732313a20617070726f766520746f2063616c6c657200000000000000600082015250565b7f4552433732313a2061646472657373207a65726f206973206e6f74206120766160008201527f6c6964206f776e65720000000000000000000000000000000000000000000000602082015250565b7f45524337323155524953746f726167653a2055524920736574206f66206e6f6e60008201527f6578697374656e7420746f6b656e000000000000000000000000000000000000602082015250565b7f4552433732313a206d696e7420746f20746865207a65726f2061646472657373600082015250565b7f4f776e61626c653a2063616c6c6572206973206e6f7420746865206f776e6572600082015250565b7f6e6f20656e6f756874206d6f6e65790000000000000000000000000000000000600082015250565b7f4552433732313a20696e76616c696420746f6b656e2049440000000000000000600082015250565b7f4552433732313a20617070726f76616c20746f2063757272656e74206f776e6560008201527f7200000000000000000000000000000000000000000000000000000000000000602082015250565b50565b7f4552433732313a20617070726f76652063616c6c6572206973206e6f7420746f60008201527f6b656e206f776e6572206f7220617070726f76656420666f7220616c6c000000602082015250565b7f455243373231456e756d657261626c653a20676c6f62616c20696e646578206f60008201527f7574206f6620626f756e64730000000000000000000000000000000000000000602082015250565b7f455243373231456e756d657261626c653a20636f6e736563757469766520747260008201527f616e7366657273206e6f7420737570706f727465640000000000000000000000602082015250565b600381106147ca576147c961426e565b5b50565b6147d681614082565b81146147e157600080fd5b50565b6147ed81614094565b81146147f857600080fd5b50565b614804816140a6565b811461480f57600080fd5b50565b61481b816140b2565b811461482657600080fd5b50565b6003811061483657600080fd5b50565b61484281614111565b811461484d57600080fd5b5056fea2646970667358221220d328b9684b0ebb1d535962c8b1b6dd20215c9b67c48903156d07d1eeda67537a64736f6c63430008040033",
  "devdoc": {
    "kind": "dev",
    "methods": {
      "approve(address,uint256)": {
        "details": "See {IERC721-approve}."
      },
      "balanceOf(address)": {
        "details": "See {IERC721-balanceOf}."
      },
      "getApproved(uint256)": {
        "details": "See {IERC721-getApproved}."
      },
      "isApprovedForAll(address,address)": {
        "details": "See {IERC721-isApprovedForAll}."
      },
      "name()": {
        "details": "See {IERC721Metadata-name}."
      },
      "owner()": {
        "details": "Returns the address of the current owner."
      },
      "ownerOf(uint256)": {
        "details": "See {IERC721-ownerOf}."
      },
      "renounceOwnership()": {
        "details": "Leaves the contract without owner. It will not be possible to call `onlyOwner` functions anymore. Can only be called by the current owner. NOTE: Renouncing ownership will leave the contract without an owner, thereby removing any functionality that is only available to the owner."
      },
      "safeTransferFrom(address,address,uint256)": {
        "details": "See {IERC721-safeTransferFrom}."
      },
      "safeTransferFrom(address,address,uint256,bytes)": {
        "details": "See {IERC721-safeTransferFrom}."
      },
      "setApprovalForAll(address,bool)": {
        "details": "See {IERC721-setApprovalForAll}."
      },
      "symbol()": {
        "details": "See {IERC721Metadata-symbol}."
      },
      "tokenByIndex(uint256)": {
        "details": "See {IERC721Enumerable-tokenByIndex}."
      },
      "tokenOfOwnerByIndex(address,uint256)": {
        "details": "See {IERC721Enumerable-tokenOfOwnerByIndex}."
      },
      "totalSupply()": {
        "details": "See {IERC721Enumerable-totalSupply}."
      },
      "transferFrom(address,address,uint256)": {
        "details": "See {IERC721-transferFrom}."
      },
      "transferOwnership(address)": {
        "details": "Transfers ownership of the contract to a new account (`newOwner`). Can only be called by the current owner."
      }
    },
    "version": 1
  },
  "userdoc": {
    "kind": "user",
    "methods": {},
    "version": 1
  },
  "storageLayout": {
    "storage": [
      {
        "astId": 138,
        "contract": "contracts/NftMint.sol:NftMint",
        "label": "_name",
        "offset": 0,
        "slot": "0",
        "type": "t_string_storage"
      },
      {
        "astId": 140,
        "contract": "contracts/NftMint.sol:NftMint",
        "label": "_symbol",
        "offset": 0,
        "slot": "1",
        "type": "t_string_storage"
      },
      {
        "astId": 144,
        "contract": "contracts/NftMint.sol:NftMint",
        "label": "_owners",
        "offset": 0,
        "slot": "2",
        "type": "t_mapping(t_uint256,t_address)"
      },
      {
        "astId": 148,
        "contract": "contracts/NftMint.sol:NftMint",
        "label": "_balances",
        "offset": 0,
        "slot": "3",
        "type": "t_mapping(t_address,t_uint256)"
      },
      {
        "astId": 152,
        "contract": "contracts/NftMint.sol:NftMint",
        "label": "_tokenApprovals",
        "offset": 0,
        "slot": "4",
        "type": "t_mapping(t_uint256,t_address)"
      },
      {
        "astId": 158,
        "contract": "contracts/NftMint.sol:NftMint",
        "label": "_operatorApprovals",
        "offset": 0,
        "slot": "5",
        "type": "t_mapping(t_address,t_mapping(t_address,t_bool))"
      },
      {
        "astId": 1206,
        "contract": "contracts/NftMint.sol:NftMint",
        "label": "_ownedTokens",
        "offset": 0,
        "slot": "6",
        "type": "t_mapping(t_address,t_mapping(t_uint256,t_uint256))"
      },
      {
        "astId": 1210,
        "contract": "contracts/NftMint.sol:NftMint",
        "label": "_ownedTokensIndex",
        "offset": 0,
        "slot": "7",
        "type": "t_mapping(t_uint256,t_uint256)"
      },
      {
        "astId": 1213,
        "contract": "contracts/NftMint.sol:NftMint",
        "label": "_allTokens",
        "offset": 0,
        "slot": "8",
        "type": "t_array(t_uint256)dyn_storage"
      },
      {
        "astId": 1217,
        "contract": "contracts/NftMint.sol:NftMint",
        "label": "_allTokensIndex",
        "offset": 0,
        "slot": "9",
        "type": "t_mapping(t_uint256,t_uint256)"
      },
      {
        "astId": 1558,
        "contract": "contracts/NftMint.sol:NftMint",
        "label": "_tokenURIs",
        "offset": 0,
        "slot": "10",
        "type": "t_mapping(t_uint256,t_string_storage)"
      },
      {
        "astId": 7,
        "contract": "contracts/NftMint.sol:NftMint",
        "label": "_owner",
        "offset": 0,
        "slot": "11",
        "type": "t_address"
      },
      {
        "astId": 3209,
        "contract": "contracts/NftMint.sol:NftMint",
        "label": "stateMint",
        "offset": 20,
        "slot": "11",
        "type": "t_enum(state)3206"
      },
      {
        "astId": 3222,
        "contract": "contracts/NftMint.sol:NftMint",
        "label": "addressWithNft",
        "offset": 0,
        "slot": "12",
        "type": "t_mapping(t_address,t_bool)"
      },
      {
        "astId": 3227,
        "contract": "contracts/NftMint.sol:NftMint",
        "label": "tokenId",
        "offset": 0,
        "slot": "13",
        "type": "t_uint256"
      },
      {
        "astId": 3233,
        "contract": "contracts/NftMint.sol:NftMint",
        "label": "tokensUrl",
        "offset": 0,
        "slot": "14",
        "type": "t_array(t_string_storage)dyn_storage"
      }
    ],
    "types": {
      "t_address": {
        "encoding": "inplace",
        "label": "address",
        "numberOfBytes": "20"
      },
      "t_array(t_string_storage)dyn_storage": {
        "base": "t_string_storage",
        "encoding": "dynamic_array",
        "label": "string[]",
        "numberOfBytes": "32"
      },
      "t_array(t_uint256)dyn_storage": {
        "base": "t_uint256",
        "encoding": "dynamic_array",
        "label": "uint256[]",
        "numberOfBytes": "32"
      },
      "t_bool": {
        "encoding": "inplace",
        "label": "bool",
        "numberOfBytes": "1"
      },
      "t_enum(state)3206": {
        "encoding": "inplace",
        "label": "enum NftMint.state",
        "numberOfBytes": "1"
      },
      "t_mapping(t_address,t_bool)": {
        "encoding": "mapping",
        "key": "t_address",
        "label": "mapping(address => bool)",
        "numberOfBytes": "32",
        "value": "t_bool"
      },
      "t_mapping(t_address,t_mapping(t_address,t_bool))": {
        "encoding": "mapping",
        "key": "t_address",
        "label": "mapping(address => mapping(address => bool))",
        "numberOfBytes": "32",
        "value": "t_mapping(t_address,t_bool)"
      },
      "t_mapping(t_address,t_mapping(t_uint256,t_uint256))": {
        "encoding": "mapping",
        "key": "t_address",
        "label": "mapping(address => mapping(uint256 => uint256))",
        "numberOfBytes": "32",
        "value": "t_mapping(t_uint256,t_uint256)"
      },
      "t_mapping(t_address,t_uint256)": {
        "encoding": "mapping",
        "key": "t_address",
        "label": "mapping(address => uint256)",
        "numberOfBytes": "32",
        "value": "t_uint256"
      },
      "t_mapping(t_uint256,t_address)": {
        "encoding": "mapping",
        "key": "t_uint256",
        "label": "mapping(uint256 => address)",
        "numberOfBytes": "32",
        "value": "t_address"
      },
      "t_mapping(t_uint256,t_string_storage)": {
        "encoding": "mapping",
        "key": "t_uint256",
        "label": "mapping(uint256 => string)",
        "numberOfBytes": "32",
        "value": "t_string_storage"
      },
      "t_mapping(t_uint256,t_uint256)": {
        "encoding": "mapping",
        "key": "t_uint256",
        "label": "mapping(uint256 => uint256)",
        "numberOfBytes": "32",
        "value": "t_uint256"
      },
      "t_string_storage": {
        "encoding": "bytes",
        "label": "string",
        "numberOfBytes": "32"
      },
      "t_uint256": {
        "encoding": "inplace",
        "label": "uint256",
        "numberOfBytes": "32"
      }
    }
  }
}